{
  "_format": "hh-sol-artifact-1",
  "contractName": "LotteryFactory",
  "sourceName": "contracts/LotteryFactory.sol",
  "abi": [
    {
      "inputs": [
        {
          "internalType": "uint256",
          "name": "_ticketPrice",
          "type": "uint256"
        }
      ],
      "stateMutability": "nonpayable",
      "type": "constructor"
    },
    {
      "anonymous": false,
      "inputs": [
        {
          "indexed": false,
          "internalType": "uint256",
          "name": "lotteryId",
          "type": "uint256"
        },
        {
          "indexed": false,
          "internalType": "uint256",
          "name": "ticketPrice",
          "type": "uint256"
        }
      ],
      "name": "LotteryCreated",
      "type": "event"
    },
    {
      "anonymous": false,
      "inputs": [
        {
          "indexed": true,
          "internalType": "address",
          "name": "previousOwner",
          "type": "address"
        },
        {
          "indexed": true,
          "internalType": "address",
          "name": "newOwner",
          "type": "address"
        }
      ],
      "name": "OwnershipTransferred",
      "type": "event"
    },
    {
      "anonymous": false,
      "inputs": [
        {
          "indexed": false,
          "internalType": "uint256",
          "name": "ticketPrice",
          "type": "uint256"
        }
      ],
      "name": "TicketPriceChanged",
      "type": "event"
    },
    {
      "inputs": [],
      "name": "createLottery",
      "outputs": [],
      "stateMutability": "nonpayable",
      "type": "function"
    },
    {
      "inputs": [],
      "name": "getLotteryAddress",
      "outputs": [
        {
          "internalType": "address",
          "name": "",
          "type": "address"
        }
      ],
      "stateMutability": "view",
      "type": "function"
    },
    {
      "inputs": [],
      "name": "getLotteryId",
      "outputs": [
        {
          "internalType": "uint256",
          "name": "",
          "type": "uint256"
        }
      ],
      "stateMutability": "view",
      "type": "function"
    },
    {
      "inputs": [],
      "name": "owner",
      "outputs": [
        {
          "internalType": "address",
          "name": "",
          "type": "address"
        }
      ],
      "stateMutability": "view",
      "type": "function"
    },
    {
      "inputs": [],
      "name": "renounceOwnership",
      "outputs": [],
      "stateMutability": "nonpayable",
      "type": "function"
    },
    {
      "inputs": [
        {
          "internalType": "uint256",
          "name": "_ticketPrice",
          "type": "uint256"
        }
      ],
      "name": "setTicketPrice",
      "outputs": [],
      "stateMutability": "nonpayable",
      "type": "function"
    },
    {
      "inputs": [],
      "name": "ticketPrice",
      "outputs": [
        {
          "internalType": "uint256",
          "name": "",
          "type": "uint256"
        }
      ],
      "stateMutability": "view",
      "type": "function"
    },
    {
      "inputs": [
        {
          "internalType": "address",
          "name": "newOwner",
          "type": "address"
        }
      ],
      "name": "transferOwnership",
      "outputs": [],
      "stateMutability": "nonpayable",
      "type": "function"
    }
  ],
  "bytecode": "0x60806040523480156200001157600080fd5b50604051620034ba380380620034ba83398181016040528101906200003791906200022d565b6000620000496200010560201b60201c565b9050806000806101000a81548173ffffffffffffffffffffffffffffffffffffffff021916908373ffffffffffffffffffffffffffffffffffffffff1602179055508073ffffffffffffffffffffffffffffffffffffffff16600073ffffffffffffffffffffffffffffffffffffffff167f8be0079c531659141344cd1fd0a4f28419497f9722a3daafe3b4186f6b6457e060405160405180910390a35080600281905550620000fe6200010d60201b60201c565b5062000325565b600033905090565b6000600180549050600254604051620001269062000208565b620001339291906200026a565b604051809103906000f08015801562000150573d6000803e3d6000fd5b5090506001819080600181540180825580915050600190039060005260206000200160009091909190916101000a81548173ffffffffffffffffffffffffffffffffffffffff021916908373ffffffffffffffffffffffffffffffffffffffff1602179055507f47fd7f728dd62fa82686e732a84ce6c7b0ea5222a999c539c4594d7d57966e7060018080549050620001ea919062000297565b600254604051620001fd9291906200026a565b60405180910390a150565b6113eb80620020cf83390190565b60008151905062000227816200030b565b92915050565b6000602082840312156200024057600080fd5b6000620002508482850162000216565b91505092915050565b6200026481620002d2565b82525050565b600060408201905062000281600083018562000259565b62000290602083018462000259565b9392505050565b6000620002a482620002d2565b9150620002b183620002d2565b925082821015620002c757620002c6620002dc565b5b828203905092915050565b6000819050919050565b7f4e487b7100000000000000000000000000000000000000000000000000000000600052601160045260246000fd5b6200031681620002d2565b81146200032257600080fd5b50565b611d9a80620003356000396000f3fe608060405234801561001057600080fd5b50600436106100885760003560e01c8063900aafaf1161005b578063900aafaf146100ef578063ea660a241461010d578063f2fde38b14610117578063fc7d91781461013357610088565b80631209b1f61461008d57806315981650146100ab578063715018a6146100c75780638da5cb5b146100d1575b600080fd5b610095610151565b6040516100a29190610857565b60405180910390f35b6100c560048036038101906100c0919061070f565b610157565b005b6100cf610216565b005b6100d9610350565b6040516100e691906107fc565b60405180910390f35b6100f7610379565b6040516101049190610857565b60405180910390f35b610115610391565b005b610131600480360381019061012c91906106e6565b610483565b005b61013b61062c565b60405161014891906107fc565b60405180910390f35b60025481565b61015f6106a7565b73ffffffffffffffffffffffffffffffffffffffff1661017d610350565b73ffffffffffffffffffffffffffffffffffffffff16146101d3576040517f08c379a00000000000000000000000000000000000000000000000000000000081526004016101ca90610837565b60405180910390fd5b806002819055507f70aa15e700a2c874a0358150f8fed3716cb8c992634a5321dc6d9a54a161e0b660025460405161020b9190610857565b60405180910390a150565b61021e6106a7565b73ffffffffffffffffffffffffffffffffffffffff1661023c610350565b73ffffffffffffffffffffffffffffffffffffffff1614610292576040517f08c379a000000000000000000000000000000000000000000000000000000000815260040161028990610837565b60405180910390fd5b600073ffffffffffffffffffffffffffffffffffffffff1660008054906101000a900473ffffffffffffffffffffffffffffffffffffffff1673ffffffffffffffffffffffffffffffffffffffff167f8be0079c531659141344cd1fd0a4f28419497f9722a3daafe3b4186f6b6457e060405160405180910390a360008060006101000a81548173ffffffffffffffffffffffffffffffffffffffff021916908373ffffffffffffffffffffffffffffffffffffffff160217905550565b60008060009054906101000a900473ffffffffffffffffffffffffffffffffffffffff16905090565b60006001808054905061038c91906108ac565b905090565b60006001805490506002546040516103a8906106af565b6103b3929190610872565b604051809103906000f0801580156103cf573d6000803e3d6000fd5b5090506001819080600181540180825580915050600190039060005260206000200160009091909190916101000a81548173ffffffffffffffffffffffffffffffffffffffff021916908373ffffffffffffffffffffffffffffffffffffffff1602179055507f47fd7f728dd62fa82686e732a84ce6c7b0ea5222a999c539c4594d7d57966e706001808054905061046791906108ac565b600254604051610478929190610872565b60405180910390a150565b61048b6106a7565b73ffffffffffffffffffffffffffffffffffffffff166104a9610350565b73ffffffffffffffffffffffffffffffffffffffff16146104ff576040517f08c379a00000000000000000000000000000000000000000000000000000000081526004016104f690610837565b60405180910390fd5b600073ffffffffffffffffffffffffffffffffffffffff168173ffffffffffffffffffffffffffffffffffffffff16141561056f576040517f08c379a000000000000000000000000000000000000000000000000000000000815260040161056690610817565b60405180910390fd5b8073ffffffffffffffffffffffffffffffffffffffff1660008054906101000a900473ffffffffffffffffffffffffffffffffffffffff1673ffffffffffffffffffffffffffffffffffffffff167f8be0079c531659141344cd1fd0a4f28419497f9722a3daafe3b4186f6b6457e060405160405180910390a3806000806101000a81548173ffffffffffffffffffffffffffffffffffffffff021916908373ffffffffffffffffffffffffffffffffffffffff16021790555050565b6000600180808054905061064091906108ac565b81548110610677577f4e487b7100000000000000000000000000000000000000000000000000000000600052603260045260246000fd5b9060005260206000200160009054906101000a900473ffffffffffffffffffffffffffffffffffffffff16905090565b600033905090565b6113eb8061097a83390190565b6000813590506106cb8161094b565b92915050565b6000813590506106e081610962565b92915050565b6000602082840312156106f857600080fd5b6000610706848285016106bc565b91505092915050565b60006020828403121561072157600080fd5b600061072f848285016106d1565b91505092915050565b610741816108e0565b82525050565b600061075460268361089b565b91507f4f776e61626c653a206e6577206f776e657220697320746865207a65726f206160008301527f64647265737300000000000000000000000000000000000000000000000000006020830152604082019050919050565b60006107ba60208361089b565b91507f4f776e61626c653a2063616c6c6572206973206e6f7420746865206f776e65726000830152602082019050919050565b6107f681610912565b82525050565b60006020820190506108116000830184610738565b92915050565b6000602082019050818103600083015261083081610747565b9050919050565b60006020820190508181036000830152610850816107ad565b9050919050565b600060208201905061086c60008301846107ed565b92915050565b600060408201905061088760008301856107ed565b61089460208301846107ed565b9392505050565b600082825260208201905092915050565b60006108b782610912565b91506108c283610912565b9250828210156108d5576108d461091c565b5b828203905092915050565b60006108eb826108f2565b9050919050565b600073ffffffffffffffffffffffffffffffffffffffff82169050919050565b6000819050919050565b7f4e487b7100000000000000000000000000000000000000000000000000000000600052601160045260246000fd5b610954816108e0565b811461095f57600080fd5b50565b61096b81610912565b811461097657600080fd5b5056fe60806040523480156200001157600080fd5b50604051620013eb380380620013eb833981810160405281019062000037919062000137565b6000620000496200011860201b60201c565b9050806000806101000a81548173ffffffffffffffffffffffffffffffffffffffff021916908373ffffffffffffffffffffffffffffffffffffffff1602179055508073ffffffffffffffffffffffffffffffffffffffff16600073ffffffffffffffffffffffffffffffffffffffff167f8be0079c531659141344cd1fd0a4f28419497f9722a3daafe3b4186f6b6457e060405160405180910390a35081600481905550806001819055506001600560006101000a81548160ff02191690831515021790555050506200019c565b600033905090565b600081519050620001318162000182565b92915050565b600080604083850312156200014b57600080fd5b60006200015b8582860162000120565b92505060206200016e8582860162000120565b9150509250929050565b6000819050919050565b6200018d8162000178565b81146200019957600080fd5b50565b61123f80620001ac6000396000f3fe6080604052600436106100c25760003560e01c8063715018a61161007f578063dfbf53ae11610059578063dfbf53ae14610225578063e580f47b14610250578063f2fde38b1461027b578063f71d96cb146102a4576100c2565b8063715018a6146101a65780638da5cb5b146101bd578063bb6acfc6146101e8576100c2565b806302fb0c5e146100c757806306e8337f146100f257806312065fe01461011d5780631209b1f61461014857806314034bd2146101735780632f3666371461018a575b600080fd5b3480156100d357600080fd5b506100dc6102e1565b6040516100e99190610f3a565b60405180910390f35b3480156100fe57600080fd5b506101076102f4565b6040516101149190610fd5565b60405180910390f35b34801561012957600080fd5b50610132610301565b60405161013f9190610fd5565b60405180910390f35b34801561015457600080fd5b5061015d610309565b60405161016a9190610fd5565b60405180910390f35b34801561017f57600080fd5b5061018861030f565b005b6101a4600480360381019061019f9190610d3a565b6105fd565b005b3480156101b257600080fd5b506101bb6107c4565b005b3480156101c957600080fd5b506101d26108fe565b6040516101df9190610f1f565b60405180910390f35b3480156101f457600080fd5b5061020f600480360381019061020a9190610d11565b610927565b60405161021c9190610fd5565b60405180910390f35b34801561023157600080fd5b5061023a610970565b6040516102479190610f1f565b60405180910390f35b34801561025c57600080fd5b50610265610996565b6040516102729190610fd5565b60405180910390f35b34801561028757600080fd5b506102a2600480360381019061029d9190610d11565b61099c565b005b3480156102b057600080fd5b506102cb60048036038101906102c69190610d3a565b610b45565b6040516102d89190610f1f565b60405180910390f35b600560009054906101000a900460ff1681565b6000600380549050905090565b600047905090565b60015481565b60006003805490501161032157600080fd5b6000600380549050424460405160200161033c929190610ef3565b6040516020818303038152906040528051906020012060001c61035f919061114c565b90506003818154811061039b577f4e487b7100000000000000000000000000000000000000000000000000000000600052603260045260246000fd5b9060005260206000200160009054906101000a900473ffffffffffffffffffffffffffffffffffffffff16600560016101000a81548173ffffffffffffffffffffffffffffffffffffffff021916908373ffffffffffffffffffffffffffffffffffffffff16021790555061040f81610b84565b61047c6003828154811061044c577f4e487b7100000000000000000000000000000000000000000000000000000000600052603260045260246000fd5b9060005260206000200160009054906101000a900473ffffffffffffffffffffffffffffffffffffffff16610c1d565b6000479050600382815481106104bb577f4e487b7100000000000000000000000000000000000000000000000000000000600052603260045260246000fd5b9060005260206000200160009054906101000a900473ffffffffffffffffffffffffffffffffffffffff1673ffffffffffffffffffffffffffffffffffffffff166108fc479081150290604051600060405180830381858888f1935050505015801561052b573d6000803e3d6000fd5b506000600560006101000a81548160ff02191690831515021790555060038281548110610581577f4e487b7100000000000000000000000000000000000000000000000000000000600052603260045260246000fd5b9060005260206000200160009054906101000a900473ffffffffffffffffffffffffffffffffffffffff1673ffffffffffffffffffffffffffffffffffffffff167f3cf1af53e79884a92609ce59db1ec9f584d88e2d14c8eaba43a21db81318301e826040516105f19190610fd5565b60405180910390a25050565b600560009054906101000a900460ff1661064c576040517f08c379a000000000000000000000000000000000000000000000000000000000815260040161064390610fb5565b60405180910390fd5b8060015461065a9190611057565b341461069b576040517f08c379a000000000000000000000000000000000000000000000000000000000815260040161069290610f95565b60405180910390fd5b80600260003373ffffffffffffffffffffffffffffffffffffffff1673ffffffffffffffffffffffffffffffffffffffff16815260200190815260200160002060008282546106ea9190611001565b9250508190555060005b81811015610772576003339080600181540180825580915050600190039060005260206000200160009091909190916101000a81548173ffffffffffffffffffffffffffffffffffffffff021916908373ffffffffffffffffffffffffffffffffffffffff160217905550808061076a906110f9565b9150506106f4565b503373ffffffffffffffffffffffffffffffffffffffff167fb24ee662b0a257d0321d324e737d2507fbe45df8af8d0da951f630f3754eb6a0826040516107b99190610fd5565b60405180910390a250565b6107cc610cb6565b73ffffffffffffffffffffffffffffffffffffffff166107ea6108fe565b73ffffffffffffffffffffffffffffffffffffffff1614610840576040517f08c379a000000000000000000000000000000000000000000000000000000000815260040161083790610f75565b60405180910390fd5b600073ffffffffffffffffffffffffffffffffffffffff1660008054906101000a900473ffffffffffffffffffffffffffffffffffffffff1673ffffffffffffffffffffffffffffffffffffffff167f8be0079c531659141344cd1fd0a4f28419497f9722a3daafe3b4186f6b6457e060405160405180910390a360008060006101000a81548173ffffffffffffffffffffffffffffffffffffffff021916908373ffffffffffffffffffffffffffffffffffffffff160217905550565b60008060009054906101000a900473ffffffffffffffffffffffffffffffffffffffff16905090565b6000600260008373ffffffffffffffffffffffffffffffffffffffff1673ffffffffffffffffffffffffffffffffffffffff168152602001908152602001600020549050919050565b600560019054906101000a900473ffffffffffffffffffffffffffffffffffffffff1681565b60045481565b6109a4610cb6565b73ffffffffffffffffffffffffffffffffffffffff166109c26108fe565b73ffffffffffffffffffffffffffffffffffffffff1614610a18576040517f08c379a0000000000000000000000000000000000000000000000000000000008152600401610a0f90610f75565b60405180910390fd5b600073ffffffffffffffffffffffffffffffffffffffff168173ffffffffffffffffffffffffffffffffffffffff161415610a88576040517f08c379a0000000000000000000000000000000000000000000000000000000008152600401610a7f90610f55565b60405180910390fd5b8073ffffffffffffffffffffffffffffffffffffffff1660008054906101000a900473ffffffffffffffffffffffffffffffffffffffff1673ffffffffffffffffffffffffffffffffffffffff167f8be0079c531659141344cd1fd0a4f28419497f9722a3daafe3b4186f6b6457e060405160405180910390a3806000806101000a81548173ffffffffffffffffffffffffffffffffffffffff021916908373ffffffffffffffffffffffffffffffffffffffff16021790555050565b60038181548110610b5557600080fd5b906000526020600020016000915054906101000a900473ffffffffffffffffffffffffffffffffffffffff1681565b610c1a81604051602401610b989190610fd5565b6040516020818303038152906040527ff5b1bba9000000000000000000000000000000000000000000000000000000007bffffffffffffffffffffffffffffffffffffffffffffffffffffffff19166020820180517bffffffffffffffffffffffffffffffffffffffffffffffffffffffff8381831617835250505050610cbe565b50565b610cb381604051602401610c319190610f1f565b6040516020818303038152906040527f2c2ecbc2000000000000000000000000000000000000000000000000000000007bffffffffffffffffffffffffffffffffffffffffffffffffffffffff19166020820180517bffffffffffffffffffffffffffffffffffffffffffffffffffffffff8381831617835250505050610cbe565b50565b600033905090565b60008151905060006a636f6e736f6c652e6c6f679050602083016000808483855afa5050505050565b600081359050610cf6816111db565b92915050565b600081359050610d0b816111f2565b92915050565b600060208284031215610d2357600080fd5b6000610d3184828501610ce7565b91505092915050565b600060208284031215610d4c57600080fd5b6000610d5a84828501610cfc565b91505092915050565b610d6c816110b1565b82525050565b610d7b816110c3565b82525050565b6000610d8e602683610ff0565b91507f4f776e61626c653a206e6577206f776e657220697320746865207a65726f206160008301527f64647265737300000000000000000000000000000000000000000000000000006020830152604082019050919050565b6000610df4602083610ff0565b91507f4f776e61626c653a2063616c6c6572206973206e6f7420746865206f776e65726000830152602082019050919050565b6000610e34602383610ff0565b91507f416d6f756e742073656e7420697320646966666572656e74207468616e20707260008301527f69636500000000000000000000000000000000000000000000000000000000006020830152604082019050919050565b6000610e9a601a83610ff0565b91507f54686973206c6f7474657279206973206e6f74206163746976650000000000006000830152602082019050919050565b610ed6816110ef565b82525050565b610eed610ee8826110ef565b611142565b82525050565b6000610eff8285610edc565b602082019150610f0f8284610edc565b6020820191508190509392505050565b6000602082019050610f346000830184610d63565b92915050565b6000602082019050610f4f6000830184610d72565b92915050565b60006020820190508181036000830152610f6e81610d81565b9050919050565b60006020820190508181036000830152610f8e81610de7565b9050919050565b60006020820190508181036000830152610fae81610e27565b9050919050565b60006020820190508181036000830152610fce81610e8d565b9050919050565b6000602082019050610fea6000830184610ecd565b92915050565b600082825260208201905092915050565b600061100c826110ef565b9150611017836110ef565b9250827fffffffffffffffffffffffffffffffffffffffffffffffffffffffffffffffff0382111561104c5761104b61117d565b5b828201905092915050565b6000611062826110ef565b915061106d836110ef565b9250817fffffffffffffffffffffffffffffffffffffffffffffffffffffffffffffffff04831182151516156110a6576110a561117d565b5b828202905092915050565b60006110bc826110cf565b9050919050565b60008115159050919050565b600073ffffffffffffffffffffffffffffffffffffffff82169050919050565b6000819050919050565b6000611104826110ef565b91507fffffffffffffffffffffffffffffffffffffffffffffffffffffffffffffffff8214156111375761113661117d565b5b600182019050919050565b6000819050919050565b6000611157826110ef565b9150611162836110ef565b925082611172576111716111ac565b5b828206905092915050565b7f4e487b7100000000000000000000000000000000000000000000000000000000600052601160045260246000fd5b7f4e487b7100000000000000000000000000000000000000000000000000000000600052601260045260246000fd5b6111e4816110b1565b81146111ef57600080fd5b50565b6111fb816110ef565b811461120657600080fd5b5056fea2646970667358221220290cbda8d22e6a8fb72c6f99d6a221226dd343fa818371eb75c22eeb725117d764736f6c63430008000033a2646970667358221220324d33a3ba0292ce1cbad86587a8c60baa0675256f2479ae5c4e52cd2b39c26264736f6c6343000800003360806040523480156200001157600080fd5b50604051620013eb380380620013eb833981810160405281019062000037919062000137565b6000620000496200011860201b60201c565b9050806000806101000a81548173ffffffffffffffffffffffffffffffffffffffff021916908373ffffffffffffffffffffffffffffffffffffffff1602179055508073ffffffffffffffffffffffffffffffffffffffff16600073ffffffffffffffffffffffffffffffffffffffff167f8be0079c531659141344cd1fd0a4f28419497f9722a3daafe3b4186f6b6457e060405160405180910390a35081600481905550806001819055506001600560006101000a81548160ff02191690831515021790555050506200019c565b600033905090565b600081519050620001318162000182565b92915050565b600080604083850312156200014b57600080fd5b60006200015b8582860162000120565b92505060206200016e8582860162000120565b9150509250929050565b6000819050919050565b6200018d8162000178565b81146200019957600080fd5b50565b61123f80620001ac6000396000f3fe6080604052600436106100c25760003560e01c8063715018a61161007f578063dfbf53ae11610059578063dfbf53ae14610225578063e580f47b14610250578063f2fde38b1461027b578063f71d96cb146102a4576100c2565b8063715018a6146101a65780638da5cb5b146101bd578063bb6acfc6146101e8576100c2565b806302fb0c5e146100c757806306e8337f146100f257806312065fe01461011d5780631209b1f61461014857806314034bd2146101735780632f3666371461018a575b600080fd5b3480156100d357600080fd5b506100dc6102e1565b6040516100e99190610f3a565b60405180910390f35b3480156100fe57600080fd5b506101076102f4565b6040516101149190610fd5565b60405180910390f35b34801561012957600080fd5b50610132610301565b60405161013f9190610fd5565b60405180910390f35b34801561015457600080fd5b5061015d610309565b60405161016a9190610fd5565b60405180910390f35b34801561017f57600080fd5b5061018861030f565b005b6101a4600480360381019061019f9190610d3a565b6105fd565b005b3480156101b257600080fd5b506101bb6107c4565b005b3480156101c957600080fd5b506101d26108fe565b6040516101df9190610f1f565b60405180910390f35b3480156101f457600080fd5b5061020f600480360381019061020a9190610d11565b610927565b60405161021c9190610fd5565b60405180910390f35b34801561023157600080fd5b5061023a610970565b6040516102479190610f1f565b60405180910390f35b34801561025c57600080fd5b50610265610996565b6040516102729190610fd5565b60405180910390f35b34801561028757600080fd5b506102a2600480360381019061029d9190610d11565b61099c565b005b3480156102b057600080fd5b506102cb60048036038101906102c69190610d3a565b610b45565b6040516102d89190610f1f565b60405180910390f35b600560009054906101000a900460ff1681565b6000600380549050905090565b600047905090565b60015481565b60006003805490501161032157600080fd5b6000600380549050424460405160200161033c929190610ef3565b6040516020818303038152906040528051906020012060001c61035f919061114c565b90506003818154811061039b577f4e487b7100000000000000000000000000000000000000000000000000000000600052603260045260246000fd5b9060005260206000200160009054906101000a900473ffffffffffffffffffffffffffffffffffffffff16600560016101000a81548173ffffffffffffffffffffffffffffffffffffffff021916908373ffffffffffffffffffffffffffffffffffffffff16021790555061040f81610b84565b61047c6003828154811061044c577f4e487b7100000000000000000000000000000000000000000000000000000000600052603260045260246000fd5b9060005260206000200160009054906101000a900473ffffffffffffffffffffffffffffffffffffffff16610c1d565b6000479050600382815481106104bb577f4e487b7100000000000000000000000000000000000000000000000000000000600052603260045260246000fd5b9060005260206000200160009054906101000a900473ffffffffffffffffffffffffffffffffffffffff1673ffffffffffffffffffffffffffffffffffffffff166108fc479081150290604051600060405180830381858888f1935050505015801561052b573d6000803e3d6000fd5b506000600560006101000a81548160ff02191690831515021790555060038281548110610581577f4e487b7100000000000000000000000000000000000000000000000000000000600052603260045260246000fd5b9060005260206000200160009054906101000a900473ffffffffffffffffffffffffffffffffffffffff1673ffffffffffffffffffffffffffffffffffffffff167f3cf1af53e79884a92609ce59db1ec9f584d88e2d14c8eaba43a21db81318301e826040516105f19190610fd5565b60405180910390a25050565b600560009054906101000a900460ff1661064c576040517f08c379a000000000000000000000000000000000000000000000000000000000815260040161064390610fb5565b60405180910390fd5b8060015461065a9190611057565b341461069b576040517f08c379a000000000000000000000000000000000000000000000000000000000815260040161069290610f95565b60405180910390fd5b80600260003373ffffffffffffffffffffffffffffffffffffffff1673ffffffffffffffffffffffffffffffffffffffff16815260200190815260200160002060008282546106ea9190611001565b9250508190555060005b81811015610772576003339080600181540180825580915050600190039060005260206000200160009091909190916101000a81548173ffffffffffffffffffffffffffffffffffffffff021916908373ffffffffffffffffffffffffffffffffffffffff160217905550808061076a906110f9565b9150506106f4565b503373ffffffffffffffffffffffffffffffffffffffff167fb24ee662b0a257d0321d324e737d2507fbe45df8af8d0da951f630f3754eb6a0826040516107b99190610fd5565b60405180910390a250565b6107cc610cb6565b73ffffffffffffffffffffffffffffffffffffffff166107ea6108fe565b73ffffffffffffffffffffffffffffffffffffffff1614610840576040517f08c379a000000000000000000000000000000000000000000000000000000000815260040161083790610f75565b60405180910390fd5b600073ffffffffffffffffffffffffffffffffffffffff1660008054906101000a900473ffffffffffffffffffffffffffffffffffffffff1673ffffffffffffffffffffffffffffffffffffffff167f8be0079c531659141344cd1fd0a4f28419497f9722a3daafe3b4186f6b6457e060405160405180910390a360008060006101000a81548173ffffffffffffffffffffffffffffffffffffffff021916908373ffffffffffffffffffffffffffffffffffffffff160217905550565b60008060009054906101000a900473ffffffffffffffffffffffffffffffffffffffff16905090565b6000600260008373ffffffffffffffffffffffffffffffffffffffff1673ffffffffffffffffffffffffffffffffffffffff168152602001908152602001600020549050919050565b600560019054906101000a900473ffffffffffffffffffffffffffffffffffffffff1681565b60045481565b6109a4610cb6565b73ffffffffffffffffffffffffffffffffffffffff166109c26108fe565b73ffffffffffffffffffffffffffffffffffffffff1614610a18576040517f08c379a0000000000000000000000000000000000000000000000000000000008152600401610a0f90610f75565b60405180910390fd5b600073ffffffffffffffffffffffffffffffffffffffff168173ffffffffffffffffffffffffffffffffffffffff161415610a88576040517f08c379a0000000000000000000000000000000000000000000000000000000008152600401610a7f90610f55565b60405180910390fd5b8073ffffffffffffffffffffffffffffffffffffffff1660008054906101000a900473ffffffffffffffffffffffffffffffffffffffff1673ffffffffffffffffffffffffffffffffffffffff167f8be0079c531659141344cd1fd0a4f28419497f9722a3daafe3b4186f6b6457e060405160405180910390a3806000806101000a81548173ffffffffffffffffffffffffffffffffffffffff021916908373ffffffffffffffffffffffffffffffffffffffff16021790555050565b60038181548110610b5557600080fd5b906000526020600020016000915054906101000a900473ffffffffffffffffffffffffffffffffffffffff1681565b610c1a81604051602401610b989190610fd5565b6040516020818303038152906040527ff5b1bba9000000000000000000000000000000000000000000000000000000007bffffffffffffffffffffffffffffffffffffffffffffffffffffffff19166020820180517bffffffffffffffffffffffffffffffffffffffffffffffffffffffff8381831617835250505050610cbe565b50565b610cb381604051602401610c319190610f1f565b6040516020818303038152906040527f2c2ecbc2000000000000000000000000000000000000000000000000000000007bffffffffffffffffffffffffffffffffffffffffffffffffffffffff19166020820180517bffffffffffffffffffffffffffffffffffffffffffffffffffffffff8381831617835250505050610cbe565b50565b600033905090565b60008151905060006a636f6e736f6c652e6c6f679050602083016000808483855afa5050505050565b600081359050610cf6816111db565b92915050565b600081359050610d0b816111f2565b92915050565b600060208284031215610d2357600080fd5b6000610d3184828501610ce7565b91505092915050565b600060208284031215610d4c57600080fd5b6000610d5a84828501610cfc565b91505092915050565b610d6c816110b1565b82525050565b610d7b816110c3565b82525050565b6000610d8e602683610ff0565b91507f4f776e61626c653a206e6577206f776e657220697320746865207a65726f206160008301527f64647265737300000000000000000000000000000000000000000000000000006020830152604082019050919050565b6000610df4602083610ff0565b91507f4f776e61626c653a2063616c6c6572206973206e6f7420746865206f776e65726000830152602082019050919050565b6000610e34602383610ff0565b91507f416d6f756e742073656e7420697320646966666572656e74207468616e20707260008301527f69636500000000000000000000000000000000000000000000000000000000006020830152604082019050919050565b6000610e9a601a83610ff0565b91507f54686973206c6f7474657279206973206e6f74206163746976650000000000006000830152602082019050919050565b610ed6816110ef565b82525050565b610eed610ee8826110ef565b611142565b82525050565b6000610eff8285610edc565b602082019150610f0f8284610edc565b6020820191508190509392505050565b6000602082019050610f346000830184610d63565b92915050565b6000602082019050610f4f6000830184610d72565b92915050565b60006020820190508181036000830152610f6e81610d81565b9050919050565b60006020820190508181036000830152610f8e81610de7565b9050919050565b60006020820190508181036000830152610fae81610e27565b9050919050565b60006020820190508181036000830152610fce81610e8d565b9050919050565b6000602082019050610fea6000830184610ecd565b92915050565b600082825260208201905092915050565b600061100c826110ef565b9150611017836110ef565b9250827fffffffffffffffffffffffffffffffffffffffffffffffffffffffffffffffff0382111561104c5761104b61117d565b5b828201905092915050565b6000611062826110ef565b915061106d836110ef565b9250817fffffffffffffffffffffffffffffffffffffffffffffffffffffffffffffffff04831182151516156110a6576110a561117d565b5b828202905092915050565b60006110bc826110cf565b9050919050565b60008115159050919050565b600073ffffffffffffffffffffffffffffffffffffffff82169050919050565b6000819050919050565b6000611104826110ef565b91507fffffffffffffffffffffffffffffffffffffffffffffffffffffffffffffffff8214156111375761113661117d565b5b600182019050919050565b6000819050919050565b6000611157826110ef565b9150611162836110ef565b925082611172576111716111ac565b5b828206905092915050565b7f4e487b7100000000000000000000000000000000000000000000000000000000600052601160045260246000fd5b7f4e487b7100000000000000000000000000000000000000000000000000000000600052601260045260246000fd5b6111e4816110b1565b81146111ef57600080fd5b50565b6111fb816110ef565b811461120657600080fd5b5056fea2646970667358221220290cbda8d22e6a8fb72c6f99d6a221226dd343fa818371eb75c22eeb725117d764736f6c63430008000033",
  "linkReferences": {},
  "deployedLinkReferences": {}
}