{
  "_format": "hh-sol-artifact-1",
  "contractName": "LotteryFactory",
  "sourceName": "contracts/LotteryFactory.sol",
  "abi": [
    {
      "inputs": [
        {
          "internalType": "uint256",
          "name": "_ticketPrice",
          "type": "uint256"
        }
      ],
      "stateMutability": "nonpayable",
      "type": "constructor"
    },
    {
      "anonymous": false,
      "inputs": [
        {
          "indexed": false,
          "internalType": "uint256",
          "name": "lotteryId",
          "type": "uint256"
        }
      ],
      "name": "LotteryCreated",
      "type": "event"
    },
    {
      "anonymous": false,
      "inputs": [
        {
          "indexed": true,
          "internalType": "address",
          "name": "previousOwner",
          "type": "address"
        },
        {
          "indexed": true,
          "internalType": "address",
          "name": "newOwner",
          "type": "address"
        }
      ],
      "name": "OwnershipTransferred",
      "type": "event"
    },
    {
      "anonymous": false,
      "inputs": [
        {
          "indexed": false,
          "internalType": "uint256",
          "name": "ticketPrice",
          "type": "uint256"
        }
      ],
      "name": "TicketPriceChanged",
      "type": "event"
    },
    {
      "inputs": [],
      "name": "createLottery",
      "outputs": [],
      "stateMutability": "nonpayable",
      "type": "function"
    },
    {
      "inputs": [],
      "name": "getLotteryAddress",
      "outputs": [
        {
          "internalType": "address",
          "name": "",
          "type": "address"
        }
      ],
      "stateMutability": "view",
      "type": "function"
    },
    {
      "inputs": [],
      "name": "getLotteryId",
      "outputs": [
        {
          "internalType": "uint256",
          "name": "",
          "type": "uint256"
        }
      ],
      "stateMutability": "view",
      "type": "function"
    },
    {
      "inputs": [],
      "name": "owner",
      "outputs": [
        {
          "internalType": "address",
          "name": "",
          "type": "address"
        }
      ],
      "stateMutability": "view",
      "type": "function"
    },
    {
      "inputs": [],
      "name": "renounceOwnership",
      "outputs": [],
      "stateMutability": "nonpayable",
      "type": "function"
    },
    {
      "inputs": [
        {
          "internalType": "uint256",
          "name": "_ticketPrice",
          "type": "uint256"
        }
      ],
      "name": "setTicketPrice",
      "outputs": [],
      "stateMutability": "nonpayable",
      "type": "function"
    },
    {
      "inputs": [],
      "name": "ticketPrice",
      "outputs": [
        {
          "internalType": "uint256",
          "name": "",
          "type": "uint256"
        }
      ],
      "stateMutability": "view",
      "type": "function"
    },
    {
      "inputs": [
        {
          "internalType": "address",
          "name": "newOwner",
          "type": "address"
        }
      ],
      "name": "transferOwnership",
      "outputs": [],
      "stateMutability": "nonpayable",
      "type": "function"
    }
  ],
  "bytecode": "0x608060405234801561001057600080fd5b506040516115c53803806115c58339818101604052810190610032919061010a565b60006100426100ed60201b60201c565b9050806000806101000a81548173ffffffffffffffffffffffffffffffffffffffff021916908373ffffffffffffffffffffffffffffffffffffffff1602179055508073ffffffffffffffffffffffffffffffffffffffff16600073ffffffffffffffffffffffffffffffffffffffff167f8be0079c531659141344cd1fd0a4f28419497f9722a3daafe3b4186f6b6457e060405160405180910390a3508060028190555050610154565b600033905090565b6000815190506101048161013d565b92915050565b60006020828403121561011c57600080fd5b600061012a848285016100f5565b91505092915050565b6000819050919050565b61014681610133565b811461015157600080fd5b50565b611462806101636000396000f3fe608060405234801561001057600080fd5b50600436106100885760003560e01c8063900aafaf1161005b578063900aafaf146100ef578063ea660a241461010d578063f2fde38b14610117578063fc7d91781461013357610088565b80631209b1f61461008d57806315981650146100ab578063715018a6146100c75780638da5cb5b146100d1575b600080fd5b610095610151565b6040516100a2919061084c565b60405180910390f35b6100c560048036038101906100c09190610704565b610157565b005b6100cf610216565b005b6100d9610350565b6040516100e691906107f1565b60405180910390f35b6100f7610379565b604051610104919061084c565b60405180910390f35b610115610391565b005b610131600480360381019061012c91906106db565b610478565b005b61013b610621565b60405161014891906107f1565b60405180910390f35b60025481565b61015f61069c565b73ffffffffffffffffffffffffffffffffffffffff1661017d610350565b73ffffffffffffffffffffffffffffffffffffffff16146101d3576040517f08c379a00000000000000000000000000000000000000000000000000000000081526004016101ca9061082c565b60405180910390fd5b806002819055507f70aa15e700a2c874a0358150f8fed3716cb8c992634a5321dc6d9a54a161e0b660025460405161020b919061084c565b60405180910390a150565b61021e61069c565b73ffffffffffffffffffffffffffffffffffffffff1661023c610350565b73ffffffffffffffffffffffffffffffffffffffff1614610292576040517f08c379a00000000000000000000000000000000000000000000000000000000081526004016102899061082c565b60405180910390fd5b600073ffffffffffffffffffffffffffffffffffffffff1660008054906101000a900473ffffffffffffffffffffffffffffffffffffffff1673ffffffffffffffffffffffffffffffffffffffff167f8be0079c531659141344cd1fd0a4f28419497f9722a3daafe3b4186f6b6457e060405160405180910390a360008060006101000a81548173ffffffffffffffffffffffffffffffffffffffff021916908373ffffffffffffffffffffffffffffffffffffffff160217905550565b60008060009054906101000a900473ffffffffffffffffffffffffffffffffffffffff16905090565b60006001808054905061038c9190610878565b905090565b60006002546040516103a2906106a4565b6103ac919061084c565b604051809103906000f0801580156103c8573d6000803e3d6000fd5b5090506001819080600181540180825580915050600190039060005260206000200160009091909190916101000a81548173ffffffffffffffffffffffffffffffffffffffff021916908373ffffffffffffffffffffffffffffffffffffffff1602179055507f9e0023bebcc752baaa41057318405b5a6a8e9c6372b519717cfdf238e5caa795600180805490506104609190610878565b60405161046d919061084c565b60405180910390a150565b61048061069c565b73ffffffffffffffffffffffffffffffffffffffff1661049e610350565b73ffffffffffffffffffffffffffffffffffffffff16146104f4576040517f08c379a00000000000000000000000000000000000000000000000000000000081526004016104eb9061082c565b60405180910390fd5b600073ffffffffffffffffffffffffffffffffffffffff168173ffffffffffffffffffffffffffffffffffffffff161415610564576040517f08c379a000000000000000000000000000000000000000000000000000000000815260040161055b9061080c565b60405180910390fd5b8073ffffffffffffffffffffffffffffffffffffffff1660008054906101000a900473ffffffffffffffffffffffffffffffffffffffff1673ffffffffffffffffffffffffffffffffffffffff167f8be0079c531659141344cd1fd0a4f28419497f9722a3daafe3b4186f6b6457e060405160405180910390a3806000806101000a81548173ffffffffffffffffffffffffffffffffffffffff021916908373ffffffffffffffffffffffffffffffffffffffff16021790555050565b600060018080805490506106359190610878565b8154811061066c577f4e487b7100000000000000000000000000000000000000000000000000000000600052603260045260246000fd5b9060005260206000200160009054906101000a900473ffffffffffffffffffffffffffffffffffffffff16905090565b600033905090565b610ae78061094683390190565b6000813590506106c081610917565b92915050565b6000813590506106d58161092e565b92915050565b6000602082840312156106ed57600080fd5b60006106fb848285016106b1565b91505092915050565b60006020828403121561071657600080fd5b6000610724848285016106c6565b91505092915050565b610736816108ac565b82525050565b6000610749602683610867565b91507f4f776e61626c653a206e6577206f776e657220697320746865207a65726f206160008301527f64647265737300000000000000000000000000000000000000000000000000006020830152604082019050919050565b60006107af602083610867565b91507f4f776e61626c653a2063616c6c6572206973206e6f7420746865206f776e65726000830152602082019050919050565b6107eb816108de565b82525050565b6000602082019050610806600083018461072d565b92915050565b600060208201905081810360008301526108258161073c565b9050919050565b60006020820190508181036000830152610845816107a2565b9050919050565b600060208201905061086160008301846107e2565b92915050565b600082825260208201905092915050565b6000610883826108de565b915061088e836108de565b9250828210156108a1576108a06108e8565b5b828203905092915050565b60006108b7826108be565b9050919050565b600073ffffffffffffffffffffffffffffffffffffffff82169050919050565b6000819050919050565b7f4e487b7100000000000000000000000000000000000000000000000000000000600052601160045260246000fd5b610920816108ac565b811461092b57600080fd5b50565b610937816108de565b811461094257600080fd5b5056fe608060405234801561001057600080fd5b50604051610ae7380380610ae78339818101604052810190610032919061010a565b60006100426100ed60201b60201c565b9050806000806101000a81548173ffffffffffffffffffffffffffffffffffffffff021916908373ffffffffffffffffffffffffffffffffffffffff1602179055508073ffffffffffffffffffffffffffffffffffffffff16600073ffffffffffffffffffffffffffffffffffffffff167f8be0079c531659141344cd1fd0a4f28419497f9722a3daafe3b4186f6b6457e060405160405180910390a3508060018190555050610154565b600033905090565b6000815190506101048161013d565b92915050565b60006020828403121561011c57600080fd5b600061012a848285016100f5565b91505092915050565b6000819050919050565b61014681610133565b811461015157600080fd5b50565b610984806101636000396000f3fe60806040526004361061007b5760003560e01c80638da5cb5b1161004e5780638da5cb5b14610118578063edca914c14610143578063f2fde38b1461014d578063f71d96cb146101765761007b565b806306e8337f1461008057806312065fe0146100ab5780631209b1f6146100d6578063715018a614610101575b600080fd5b34801561008c57600080fd5b506100956101b3565b6040516100a29190610840565b60405180910390f35b3480156100b757600080fd5b506100c06101c0565b6040516100cd9190610840565b60405180910390f35b3480156100e257600080fd5b506100eb6101c8565b6040516100f89190610840565b60405180910390f35b34801561010d57600080fd5b506101166101ce565b005b34801561012457600080fd5b5061012d610308565b60405161013a91906107c5565b60405180910390f35b61014b610331565b005b34801561015957600080fd5b50610174600480360381019061016f9190610649565b61042f565b005b34801561018257600080fd5b5061019d60048036038101906101989190610672565b6105d8565b6040516101aa91906107c5565b60405180910390f35b6000600380549050905090565b600047905090565b60015481565b6101d6610617565b73ffffffffffffffffffffffffffffffffffffffff166101f4610308565b73ffffffffffffffffffffffffffffffffffffffff161461024a576040517f08c379a000000000000000000000000000000000000000000000000000000000815260040161024190610800565b60405180910390fd5b600073ffffffffffffffffffffffffffffffffffffffff1660008054906101000a900473ffffffffffffffffffffffffffffffffffffffff1673ffffffffffffffffffffffffffffffffffffffff167f8be0079c531659141344cd1fd0a4f28419497f9722a3daafe3b4186f6b6457e060405160405180910390a360008060006101000a81548173ffffffffffffffffffffffffffffffffffffffff021916908373ffffffffffffffffffffffffffffffffffffffff160217905550565b60008060009054906101000a900473ffffffffffffffffffffffffffffffffffffffff16905090565b6001543414610375576040517f08c379a000000000000000000000000000000000000000000000000000000000815260040161036c90610820565b60405180910390fd5b600260003373ffffffffffffffffffffffffffffffffffffffff1673ffffffffffffffffffffffffffffffffffffffff16815260200190815260200160002060008154809291906103c5906108a8565b91905055506003339080600181540180825580915050600190039060005260206000200160009091909190916101000a81548173ffffffffffffffffffffffffffffffffffffffff021916908373ffffffffffffffffffffffffffffffffffffffff160217905550565b610437610617565b73ffffffffffffffffffffffffffffffffffffffff16610455610308565b73ffffffffffffffffffffffffffffffffffffffff16146104ab576040517f08c379a00000000000000000000000000000000000000000000000000000000081526004016104a290610800565b60405180910390fd5b600073ffffffffffffffffffffffffffffffffffffffff168173ffffffffffffffffffffffffffffffffffffffff16141561051b576040517f08c379a0000000000000000000000000000000000000000000000000000000008152600401610512906107e0565b60405180910390fd5b8073ffffffffffffffffffffffffffffffffffffffff1660008054906101000a900473ffffffffffffffffffffffffffffffffffffffff1673ffffffffffffffffffffffffffffffffffffffff167f8be0079c531659141344cd1fd0a4f28419497f9722a3daafe3b4186f6b6457e060405160405180910390a3806000806101000a81548173ffffffffffffffffffffffffffffffffffffffff021916908373ffffffffffffffffffffffffffffffffffffffff16021790555050565b600381815481106105e857600080fd5b906000526020600020016000915054906101000a900473ffffffffffffffffffffffffffffffffffffffff1681565b600033905090565b60008135905061062e81610920565b92915050565b60008135905061064381610937565b92915050565b60006020828403121561065b57600080fd5b60006106698482850161061f565b91505092915050565b60006020828403121561068457600080fd5b600061069284828501610634565b91505092915050565b6106a48161086c565b82525050565b60006106b760268361085b565b91507f4f776e61626c653a206e6577206f776e657220697320746865207a65726f206160008301527f64647265737300000000000000000000000000000000000000000000000000006020830152604082019050919050565b600061071d60208361085b565b91507f4f776e61626c653a2063616c6c6572206973206e6f7420746865206f776e65726000830152602082019050919050565b600061075d60298361085b565b91507f416d6f756e742073656e7420697320646966666572656e74207468616e20746960008301527f636b6574507269636500000000000000000000000000000000000000000000006020830152604082019050919050565b6107bf8161089e565b82525050565b60006020820190506107da600083018461069b565b92915050565b600060208201905081810360008301526107f9816106aa565b9050919050565b6000602082019050818103600083015261081981610710565b9050919050565b6000602082019050818103600083015261083981610750565b9050919050565b600060208201905061085560008301846107b6565b92915050565b600082825260208201905092915050565b60006108778261087e565b9050919050565b600073ffffffffffffffffffffffffffffffffffffffff82169050919050565b6000819050919050565b60006108b38261089e565b91507fffffffffffffffffffffffffffffffffffffffffffffffffffffffffffffffff8214156108e6576108e56108f1565b5b600182019050919050565b7f4e487b7100000000000000000000000000000000000000000000000000000000600052601160045260246000fd5b6109298161086c565b811461093457600080fd5b50565b6109408161089e565b811461094b57600080fd5b5056fea264697066735822122046899e68c87704b1fc62c238a6f6791a8c03453516b0b474d5ccc014ef6a8cc264736f6c63430008000033a2646970667358221220c7453d556422a03bff60f378501063a42c731f452fd5b6827a64ddf991327f8e64736f6c63430008000033",
  "linkReferences": {},
  "deployedLinkReferences": {}
}