{
  "_format": "hh-sol-artifact-1",
  "contractName": "Lottery",
  "sourceName": "contracts/Lottery.sol",
  "abi": [
    {
      "inputs": [
        {
          "internalType": "uint256",
          "name": "_lotteryId",
          "type": "uint256"
        },
        {
          "internalType": "address",
          "name": "_nftAddress",
          "type": "address"
        },
        {
          "internalType": "uint256",
          "name": "_nftIndex",
          "type": "uint256"
        },
        {
          "internalType": "uint256",
          "name": "_ticketPrice",
          "type": "uint256"
        },
        {
          "internalType": "uint256",
          "name": "_daysOpenPeriod",
          "type": "uint256"
        },
        {
          "internalType": "uint256",
          "name": "_daysStakingPeriod",
          "type": "uint256"
        }
      ],
      "stateMutability": "nonpayable",
      "type": "constructor"
    },
    {
      "anonymous": false,
      "inputs": [
        {
          "indexed": true,
          "internalType": "address",
          "name": "previousOwner",
          "type": "address"
        },
        {
          "indexed": true,
          "internalType": "address",
          "name": "newOwner",
          "type": "address"
        }
      ],
      "name": "OwnershipTransferred",
      "type": "event"
    },
    {
      "anonymous": false,
      "inputs": [
        {
          "indexed": false,
          "internalType": "uint256",
          "name": "lotteryId",
          "type": "uint256"
        },
        {
          "indexed": true,
          "internalType": "address",
          "name": "buyer",
          "type": "address"
        },
        {
          "indexed": false,
          "internalType": "uint256",
          "name": "numberOfTickets",
          "type": "uint256"
        }
      ],
      "name": "TicketsBought",
      "type": "event"
    },
    {
      "inputs": [
        {
          "internalType": "uint256",
          "name": "_numberOfTickets",
          "type": "uint256"
        }
      ],
      "name": "buyTickets",
      "outputs": [],
      "stateMutability": "payable",
      "type": "function"
    },
    {
      "inputs": [
        {
          "internalType": "address",
          "name": "_addr",
          "type": "address"
        }
      ],
      "name": "getAddressTickets",
      "outputs": [
        {
          "internalType": "uint256",
          "name": "",
          "type": "uint256"
        }
      ],
      "stateMutability": "view",
      "type": "function"
    },
    {
      "inputs": [],
      "name": "getBalance",
      "outputs": [
        {
          "internalType": "uint256",
          "name": "",
          "type": "uint256"
        }
      ],
      "stateMutability": "view",
      "type": "function"
    },
    {
      "inputs": [],
      "name": "getTotalTickets",
      "outputs": [
        {
          "internalType": "uint256",
          "name": "",
          "type": "uint256"
        }
      ],
      "stateMutability": "view",
      "type": "function"
    },
    {
      "inputs": [],
      "name": "lotteryId",
      "outputs": [
        {
          "internalType": "uint256",
          "name": "",
          "type": "uint256"
        }
      ],
      "stateMutability": "view",
      "type": "function"
    },
    {
      "inputs": [],
      "name": "nft",
      "outputs": [
        {
          "internalType": "address",
          "name": "addr",
          "type": "address"
        },
        {
          "internalType": "uint256",
          "name": "index",
          "type": "uint256"
        }
      ],
      "stateMutability": "view",
      "type": "function"
    },
    {
      "inputs": [],
      "name": "owner",
      "outputs": [
        {
          "internalType": "address",
          "name": "",
          "type": "address"
        }
      ],
      "stateMutability": "view",
      "type": "function"
    },
    {
      "inputs": [
        {
          "internalType": "uint256",
          "name": "",
          "type": "uint256"
        }
      ],
      "name": "players",
      "outputs": [
        {
          "internalType": "address",
          "name": "",
          "type": "address"
        }
      ],
      "stateMutability": "view",
      "type": "function"
    },
    {
      "inputs": [],
      "name": "renounceOwnership",
      "outputs": [],
      "stateMutability": "nonpayable",
      "type": "function"
    },
    {
      "inputs": [],
      "name": "ticketPrice",
      "outputs": [
        {
          "internalType": "uint256",
          "name": "",
          "type": "uint256"
        }
      ],
      "stateMutability": "view",
      "type": "function"
    },
    {
      "inputs": [
        {
          "internalType": "address",
          "name": "newOwner",
          "type": "address"
        }
      ],
      "name": "transferOwnership",
      "outputs": [],
      "stateMutability": "nonpayable",
      "type": "function"
    }
  ],
  "bytecode": "0x60806040523480156200001157600080fd5b5060405162000fe338038062000fe383398181016040528101906200003791906200019a565b6000620000496200016460201b60201c565b9050806000806101000a81548173ffffffffffffffffffffffffffffffffffffffff021916908373ffffffffffffffffffffffffffffffffffffffff1602179055508073ffffffffffffffffffffffffffffffffffffffff16600073ffffffffffffffffffffffffffffffffffffffff167f8be0079c531659141344cd1fd0a4f28419497f9722a3daafe3b4186f6b6457e060405160405180910390a3508560018190555082600281905550816003819055508060048190555084600660000160006101000a81548173ffffffffffffffffffffffffffffffffffffffff021916908373ffffffffffffffffffffffffffffffffffffffff1602179055508360066001018190555042600581905550505050505050620002a2565b600033905090565b6000815190506200017d816200026e565b92915050565b600081519050620001948162000288565b92915050565b60008060008060008060c08789031215620001b457600080fd5b6000620001c489828a0162000183565b9650506020620001d789828a016200016c565b9550506040620001ea89828a0162000183565b9450506060620001fd89828a0162000183565b93505060806200021089828a0162000183565b92505060a06200022389828a0162000183565b9150509295509295509295565b60006200023d8262000244565b9050919050565b600073ffffffffffffffffffffffffffffffffffffffff82169050919050565b6000819050919050565b620002798162000230565b81146200028557600080fd5b50565b620002938162000264565b81146200029f57600080fd5b50565b610d3180620002b26000396000f3fe60806040526004361061009c5760003560e01c8063715018a611610064578063715018a61461016a5780638da5cb5b14610181578063bb6acfc6146101ac578063e580f47b146101e9578063f2fde38b14610214578063f71d96cb1461023d5761009c565b806306e8337f146100a157806312065fe0146100cc5780631209b1f6146100f75780632f3666371461012257806347ccca021461013e575b600080fd5b3480156100ad57600080fd5b506100b661027a565b6040516100c39190610b14565b60405180910390f35b3480156100d857600080fd5b506100e1610287565b6040516100ee9190610b14565b60405180910390f35b34801561010357600080fd5b5061010c61028f565b6040516101199190610b14565b60405180910390f35b61013c60048036038101906101379190610897565b610295565b005b34801561014a57600080fd5b50610153610470565b604051610161929190610a6b565b60405180910390f35b34801561017657600080fd5b5061017f6104a2565b005b34801561018d57600080fd5b506101966105dc565b6040516101a39190610a50565b60405180910390f35b3480156101b857600080fd5b506101d360048036038101906101ce919061086e565b610605565b6040516101e09190610b14565b60405180910390f35b3480156101f557600080fd5b506101fe61064e565b60405161020b9190610b14565b60405180910390f35b34801561022057600080fd5b5061023b6004803603810190610236919061086e565b610654565b005b34801561024957600080fd5b50610264600480360381019061025f9190610897565b6107fd565b6040516102719190610a50565b60405180910390f35b6000600980549050905090565b600047905090565b60025481565b620151806003546102a69190610bbf565b6005546102b39190610b69565b42106102f4576040517f08c379a00000000000000000000000000000000000000000000000000000000081526004016102eb90610ab4565b60405180910390fd5b806002546103029190610bbf565b3414610343576040517f08c379a000000000000000000000000000000000000000000000000000000000815260040161033a90610af4565b60405180910390fd5b80600860003373ffffffffffffffffffffffffffffffffffffffff1673ffffffffffffffffffffffffffffffffffffffff16815260200190815260200160002060008282546103929190610b69565b9250508190555060005b8181101561041a576009339080600181540180825580915050600190039060005260206000200160009091909190916101000a81548173ffffffffffffffffffffffffffffffffffffffff021916908373ffffffffffffffffffffffffffffffffffffffff160217905550808061041290610c55565b91505061039c565b503373ffffffffffffffffffffffffffffffffffffffff167f2fe7f3fce87dc8184aed61d2307d6f46c968decd48a64b99c3d961a4c8d9b7bd60015483604051610465929190610b2f565b60405180910390a250565b60068060000160009054906101000a900473ffffffffffffffffffffffffffffffffffffffff16908060010154905082565b6104aa61083c565b73ffffffffffffffffffffffffffffffffffffffff166104c86105dc565b73ffffffffffffffffffffffffffffffffffffffff161461051e576040517f08c379a000000000000000000000000000000000000000000000000000000000815260040161051590610ad4565b60405180910390fd5b600073ffffffffffffffffffffffffffffffffffffffff1660008054906101000a900473ffffffffffffffffffffffffffffffffffffffff1673ffffffffffffffffffffffffffffffffffffffff167f8be0079c531659141344cd1fd0a4f28419497f9722a3daafe3b4186f6b6457e060405160405180910390a360008060006101000a81548173ffffffffffffffffffffffffffffffffffffffff021916908373ffffffffffffffffffffffffffffffffffffffff160217905550565b60008060009054906101000a900473ffffffffffffffffffffffffffffffffffffffff16905090565b6000600860008373ffffffffffffffffffffffffffffffffffffffff1673ffffffffffffffffffffffffffffffffffffffff168152602001908152602001600020549050919050565b60015481565b61065c61083c565b73ffffffffffffffffffffffffffffffffffffffff1661067a6105dc565b73ffffffffffffffffffffffffffffffffffffffff16146106d0576040517f08c379a00000000000000000000000000000000000000000000000000000000081526004016106c790610ad4565b60405180910390fd5b600073ffffffffffffffffffffffffffffffffffffffff168173ffffffffffffffffffffffffffffffffffffffff161415610740576040517f08c379a000000000000000000000000000000000000000000000000000000000815260040161073790610a94565b60405180910390fd5b8073ffffffffffffffffffffffffffffffffffffffff1660008054906101000a900473ffffffffffffffffffffffffffffffffffffffff1673ffffffffffffffffffffffffffffffffffffffff167f8be0079c531659141344cd1fd0a4f28419497f9722a3daafe3b4186f6b6457e060405160405180910390a3806000806101000a81548173ffffffffffffffffffffffffffffffffffffffff021916908373ffffffffffffffffffffffffffffffffffffffff16021790555050565b6009818154811061080d57600080fd5b906000526020600020016000915054906101000a900473ffffffffffffffffffffffffffffffffffffffff1681565b600033905090565b60008135905061085381610ccd565b92915050565b60008135905061086881610ce4565b92915050565b60006020828403121561088057600080fd5b600061088e84828501610844565b91505092915050565b6000602082840312156108a957600080fd5b60006108b784828501610859565b91505092915050565b6108c981610c19565b82525050565b60006108dc602683610b58565b91507f4f776e61626c653a206e6577206f776e657220697320746865207a65726f206160008301527f64647265737300000000000000000000000000000000000000000000000000006020830152604082019050919050565b6000610942602283610b58565b91507f546865206c6f7474657279206f70656e20706572696f642077617320636c6f7360008301527f65640000000000000000000000000000000000000000000000000000000000006020830152604082019050919050565b60006109a8602083610b58565b91507f4f776e61626c653a2063616c6c6572206973206e6f7420746865206f776e65726000830152602082019050919050565b60006109e8602383610b58565b91507f416d6f756e742073656e7420697320646966666572656e74207468616e20707260008301527f69636500000000000000000000000000000000000000000000000000000000006020830152604082019050919050565b610a4a81610c4b565b82525050565b6000602082019050610a6560008301846108c0565b92915050565b6000604082019050610a8060008301856108c0565b610a8d6020830184610a41565b9392505050565b60006020820190508181036000830152610aad816108cf565b9050919050565b60006020820190508181036000830152610acd81610935565b9050919050565b60006020820190508181036000830152610aed8161099b565b9050919050565b60006020820190508181036000830152610b0d816109db565b9050919050565b6000602082019050610b296000830184610a41565b92915050565b6000604082019050610b446000830185610a41565b610b516020830184610a41565b9392505050565b600082825260208201905092915050565b6000610b7482610c4b565b9150610b7f83610c4b565b9250827fffffffffffffffffffffffffffffffffffffffffffffffffffffffffffffffff03821115610bb457610bb3610c9e565b5b828201905092915050565b6000610bca82610c4b565b9150610bd583610c4b565b9250817fffffffffffffffffffffffffffffffffffffffffffffffffffffffffffffffff0483118215151615610c0e57610c0d610c9e565b5b828202905092915050565b6000610c2482610c2b565b9050919050565b600073ffffffffffffffffffffffffffffffffffffffff82169050919050565b6000819050919050565b6000610c6082610c4b565b91507fffffffffffffffffffffffffffffffffffffffffffffffffffffffffffffffff821415610c9357610c92610c9e565b5b600182019050919050565b7f4e487b7100000000000000000000000000000000000000000000000000000000600052601160045260246000fd5b610cd681610c19565b8114610ce157600080fd5b50565b610ced81610c4b565b8114610cf857600080fd5b5056fea26469706673582212205d331b6cff4b2552c1f8b147231c348e1366407619eba60d2c0e3571f13abf4264736f6c63430008000033",
  "linkReferences": {},
  "deployedLinkReferences": {}
}