{
  "_format": "hh-sol-artifact-1",
  "contractName": "Lottery",
  "sourceName": "contracts/Lottery.sol",
  "abi": [
    {
      "inputs": [
        {
          "internalType": "uint256",
          "name": "_lotteryId",
          "type": "uint256"
        },
        {
          "internalType": "address",
          "name": "_nftAddress",
          "type": "address"
        },
        {
          "internalType": "uint256",
          "name": "_nftIndex",
          "type": "uint256"
        },
        {
          "internalType": "uint256",
          "name": "_ticketPrice",
          "type": "uint256"
        }
      ],
      "stateMutability": "nonpayable",
      "type": "constructor"
    },
    {
      "anonymous": false,
      "inputs": [
        {
          "indexed": true,
          "internalType": "address",
          "name": "previousOwner",
          "type": "address"
        },
        {
          "indexed": true,
          "internalType": "address",
          "name": "newOwner",
          "type": "address"
        }
      ],
      "name": "OwnershipTransferred",
      "type": "event"
    },
    {
      "anonymous": false,
      "inputs": [
        {
          "indexed": false,
          "internalType": "uint256",
          "name": "lotteryId",
          "type": "uint256"
        },
        {
          "indexed": true,
          "internalType": "address",
          "name": "buyer",
          "type": "address"
        },
        {
          "indexed": false,
          "internalType": "uint256",
          "name": "numberOfTickets",
          "type": "uint256"
        }
      ],
      "name": "TicketsBought",
      "type": "event"
    },
    {
      "inputs": [
        {
          "internalType": "uint256",
          "name": "_numberOfTickets",
          "type": "uint256"
        }
      ],
      "name": "buyTickets",
      "outputs": [],
      "stateMutability": "payable",
      "type": "function"
    },
    {
      "inputs": [
        {
          "internalType": "uint256",
          "name": "_numberOfTickets",
          "type": "uint256"
        }
      ],
      "name": "cancelTickets",
      "outputs": [],
      "stateMutability": "nonpayable",
      "type": "function"
    },
    {
      "inputs": [],
      "name": "declareWinner",
      "outputs": [],
      "stateMutability": "nonpayable",
      "type": "function"
    },
    {
      "inputs": [
        {
          "internalType": "address",
          "name": "_addr",
          "type": "address"
        }
      ],
      "name": "getAddressTickets",
      "outputs": [
        {
          "internalType": "uint256",
          "name": "",
          "type": "uint256"
        }
      ],
      "stateMutability": "view",
      "type": "function"
    },
    {
      "inputs": [],
      "name": "getBalance",
      "outputs": [
        {
          "internalType": "uint256",
          "name": "",
          "type": "uint256"
        }
      ],
      "stateMutability": "view",
      "type": "function"
    },
    {
      "inputs": [],
      "name": "getTotalTickets",
      "outputs": [
        {
          "internalType": "uint256",
          "name": "",
          "type": "uint256"
        }
      ],
      "stateMutability": "view",
      "type": "function"
    },
    {
      "inputs": [],
      "name": "launchStaking",
      "outputs": [],
      "stateMutability": "nonpayable",
      "type": "function"
    },
    {
      "inputs": [],
      "name": "lotteryId",
      "outputs": [
        {
          "internalType": "uint256",
          "name": "",
          "type": "uint256"
        }
      ],
      "stateMutability": "view",
      "type": "function"
    },
    {
      "inputs": [],
      "name": "nft",
      "outputs": [
        {
          "internalType": "address",
          "name": "addr",
          "type": "address"
        },
        {
          "internalType": "uint256",
          "name": "index",
          "type": "uint256"
        }
      ],
      "stateMutability": "view",
      "type": "function"
    },
    {
      "inputs": [],
      "name": "owner",
      "outputs": [
        {
          "internalType": "address",
          "name": "",
          "type": "address"
        }
      ],
      "stateMutability": "view",
      "type": "function"
    },
    {
      "inputs": [
        {
          "internalType": "uint256",
          "name": "",
          "type": "uint256"
        }
      ],
      "name": "players",
      "outputs": [
        {
          "internalType": "address",
          "name": "",
          "type": "address"
        }
      ],
      "stateMutability": "view",
      "type": "function"
    },
    {
      "inputs": [],
      "name": "renounceOwnership",
      "outputs": [],
      "stateMutability": "nonpayable",
      "type": "function"
    },
    {
      "inputs": [],
      "name": "state",
      "outputs": [
        {
          "internalType": "enum Lottery.State",
          "name": "",
          "type": "uint8"
        }
      ],
      "stateMutability": "view",
      "type": "function"
    },
    {
      "inputs": [],
      "name": "ticketPrice",
      "outputs": [
        {
          "internalType": "uint256",
          "name": "",
          "type": "uint256"
        }
      ],
      "stateMutability": "view",
      "type": "function"
    },
    {
      "inputs": [
        {
          "internalType": "address",
          "name": "newOwner",
          "type": "address"
        }
      ],
      "name": "transferOwnership",
      "outputs": [],
      "stateMutability": "nonpayable",
      "type": "function"
    },
    {
      "inputs": [],
      "name": "winner",
      "outputs": [
        {
          "internalType": "address",
          "name": "",
          "type": "address"
        }
      ],
      "stateMutability": "view",
      "type": "function"
    }
  ],
  "bytecode": "0x60806040523480156200001157600080fd5b5060405162001b1838038062001b188339818101604052810190620000379190620001dc565b600062000049620001a660201b60201c565b9050806000806101000a81548173ffffffffffffffffffffffffffffffffffffffff021916908373ffffffffffffffffffffffffffffffffffffffff1602179055508073ffffffffffffffffffffffffffffffffffffffff16600073ffffffffffffffffffffffffffffffffffffffff167f8be0079c531659141344cd1fd0a4f28419497f9722a3daafe3b4186f6b6457e060405160405180910390a350836001819055508060028190555082600460000160006101000a81548173ffffffffffffffffffffffffffffffffffffffff021916908373ffffffffffffffffffffffffffffffffffffffff160217905550816004600101819055506000600860006101000a81548160ff0219169083600281111562000190577f4e487b7100000000000000000000000000000000000000000000000000000000600052602160045260246000fd5b02179055504260038190555050505050620002ba565b600033905090565b600081519050620001bf8162000286565b92915050565b600081519050620001d681620002a0565b92915050565b60008060008060808587031215620001f357600080fd5b60006200020387828801620001c5565b94505060206200021687828801620001ae565b93505060406200022987828801620001c5565b92505060606200023c87828801620001c5565b91505092959194509250565b600062000255826200025c565b9050919050565b600073ffffffffffffffffffffffffffffffffffffffff82169050919050565b6000819050919050565b620002918162000248565b81146200029d57600080fd5b50565b620002ab816200027c565b8114620002b757600080fd5b50565b61184e80620002ca6000396000f3fe6080604052600436106100f35760003560e01c8063a30a24741161008a578063e580f47b11610059578063e580f47b146102c4578063f2fde38b146102ef578063f71d96cb14610318578063fc22389a14610355576100f3565b8063a30a24741461021a578063bb6acfc614610231578063c19d93fb1461026e578063dfbf53ae14610299576100f3565b80632f366637116100c65780632f3666371461019057806347ccca02146101ac578063715018a6146101d85780638da5cb5b146101ef576100f3565b806306e8337f146100f857806312065fe0146101235780631209b1f61461014e57806314034bd214610179575b600080fd5b34801561010457600080fd5b5061010d61037e565b60405161011a919061152b565b60405180910390f35b34801561012f57600080fd5b5061013861038b565b604051610145919061152b565b60405180910390f35b34801561015a57600080fd5b50610163610393565b604051610170919061152b565b60405180910390f35b34801561018557600080fd5b5061018e610399565b005b6101aa60048036038101906101a591906110c1565b610658565b005b3480156101b857600080fd5b506101c1610896565b6040516101cf9291906113e7565b60405180910390f35b3480156101e457600080fd5b506101ed6108c8565b005b3480156101fb57600080fd5b50610204610a02565b60405161021191906113cc565b60405180910390f35b34801561022657600080fd5b5061022f610a2b565b005b34801561023d57600080fd5b5061025860048036038101906102539190611098565b610bbc565b604051610265919061152b565b60405180910390f35b34801561027a57600080fd5b50610283610c05565b6040516102909190611410565b60405180910390f35b3480156102a557600080fd5b506102ae610c18565b6040516102bb91906113cc565b60405180910390f35b3480156102d057600080fd5b506102d9610c3e565b6040516102e6919061152b565b60405180910390f35b3480156102fb57600080fd5b5061031660048036038101906103119190611098565b610c44565b005b34801561032457600080fd5b5061033f600480360381019061033a91906110c1565b610ded565b60405161034c91906113cc565b60405180910390f35b34801561036157600080fd5b5061037c600480360381019061037791906110c1565b610e2c565b005b6000600780549050905090565b600047905090565b60025481565b6103a1611066565b73ffffffffffffffffffffffffffffffffffffffff166103bf610a02565b73ffffffffffffffffffffffffffffffffffffffff1614610415576040517f08c379a000000000000000000000000000000000000000000000000000000000815260040161040c906114ab565b60405180910390fd5b60028081111561044e577f4e487b7100000000000000000000000000000000000000000000000000000000600052602160045260246000fd5b600860009054906101000a900460ff166002811115610496577f4e487b7100000000000000000000000000000000000000000000000000000000600052602160045260246000fd5b14156104d7576040517f08c379a00000000000000000000000000000000000000000000000000000000081526004016104ce9061142b565b60405180910390fd5b60006007805490501161051f576040517f08c379a00000000000000000000000000000000000000000000000000000000081526004016105169061146b565b60405180910390fd5b6000600780549050424460405160200161053a9291906113a0565b6040516020818303038152906040528051906020012060001c61055d9190611718565b905060078181548110610599577f4e487b7100000000000000000000000000000000000000000000000000000000600052603260045260246000fd5b9060005260206000200160009054906101000a900473ffffffffffffffffffffffffffffffffffffffff16600860016101000a81548173ffffffffffffffffffffffffffffffffffffffff021916908373ffffffffffffffffffffffffffffffffffffffff1602179055506002600860006101000a81548160ff02191690836002811115610650577f4e487b7100000000000000000000000000000000000000000000000000000000600052602160045260246000fd5b021790555050565b60006002811115610692577f4e487b7100000000000000000000000000000000000000000000000000000000600052602160045260246000fd5b600860009054906101000a900460ff1660028111156106da577f4e487b7100000000000000000000000000000000000000000000000000000000600052602160045260246000fd5b1461071a576040517f08c379a00000000000000000000000000000000000000000000000000000000081526004016107119061148b565b60405180910390fd5b8060025461072891906115d6565b3414610769576040517f08c379a0000000000000000000000000000000000000000000000000000000008152600401610760906114cb565b60405180910390fd5b80600660003373ffffffffffffffffffffffffffffffffffffffff1673ffffffffffffffffffffffffffffffffffffffff16815260200190815260200160002060008282546107b89190611580565b9250508190555060005b81811015610840576007339080600181540180825580915050600190039060005260206000200160009091909190916101000a81548173ffffffffffffffffffffffffffffffffffffffff021916908373ffffffffffffffffffffffffffffffffffffffff1602179055508080610838906116c5565b9150506107c2565b503373ffffffffffffffffffffffffffffffffffffffff167f2fe7f3fce87dc8184aed61d2307d6f46c968decd48a64b99c3d961a4c8d9b7bd6001548360405161088b929190611546565b60405180910390a250565b60048060000160009054906101000a900473ffffffffffffffffffffffffffffffffffffffff16908060010154905082565b6108d0611066565b73ffffffffffffffffffffffffffffffffffffffff166108ee610a02565b73ffffffffffffffffffffffffffffffffffffffff1614610944576040517f08c379a000000000000000000000000000000000000000000000000000000000815260040161093b906114ab565b60405180910390fd5b600073ffffffffffffffffffffffffffffffffffffffff1660008054906101000a900473ffffffffffffffffffffffffffffffffffffffff1673ffffffffffffffffffffffffffffffffffffffff167f8be0079c531659141344cd1fd0a4f28419497f9722a3daafe3b4186f6b6457e060405160405180910390a360008060006101000a81548173ffffffffffffffffffffffffffffffffffffffff021916908373ffffffffffffffffffffffffffffffffffffffff160217905550565b60008060009054906101000a900473ffffffffffffffffffffffffffffffffffffffff16905090565b610a33611066565b73ffffffffffffffffffffffffffffffffffffffff16610a51610a02565b73ffffffffffffffffffffffffffffffffffffffff1614610aa7576040517f08c379a0000000000000000000000000000000000000000000000000000000008152600401610a9e906114ab565b60405180910390fd5b60006002811115610ae1577f4e487b7100000000000000000000000000000000000000000000000000000000600052602160045260246000fd5b600860009054906101000a900460ff166002811115610b29577f4e487b7100000000000000000000000000000000000000000000000000000000600052602160045260246000fd5b14610b69576040517f08c379a0000000000000000000000000000000000000000000000000000000008152600401610b609061142b565b60405180910390fd5b6001600860006101000a81548160ff02191690836002811115610bb5577f4e487b7100000000000000000000000000000000000000000000000000000000600052602160045260246000fd5b0217905550565b6000600660008373ffffffffffffffffffffffffffffffffffffffff1673ffffffffffffffffffffffffffffffffffffffff168152602001908152602001600020549050919050565b600860009054906101000a900460ff1681565b600860019054906101000a900473ffffffffffffffffffffffffffffffffffffffff1681565b60015481565b610c4c611066565b73ffffffffffffffffffffffffffffffffffffffff16610c6a610a02565b73ffffffffffffffffffffffffffffffffffffffff1614610cc0576040517f08c379a0000000000000000000000000000000000000000000000000000000008152600401610cb7906114ab565b60405180910390fd5b600073ffffffffffffffffffffffffffffffffffffffff168173ffffffffffffffffffffffffffffffffffffffff161415610d30576040517f08c379a0000000000000000000000000000000000000000000000000000000008152600401610d279061144b565b60405180910390fd5b8073ffffffffffffffffffffffffffffffffffffffff1660008054906101000a900473ffffffffffffffffffffffffffffffffffffffff1673ffffffffffffffffffffffffffffffffffffffff167f8be0079c531659141344cd1fd0a4f28419497f9722a3daafe3b4186f6b6457e060405160405180910390a3806000806101000a81548173ffffffffffffffffffffffffffffffffffffffff021916908373ffffffffffffffffffffffffffffffffffffffff16021790555050565b60078181548110610dfd57600080fd5b906000526020600020016000915054906101000a900473ffffffffffffffffffffffffffffffffffffffff1681565b60006002811115610e66577f4e487b7100000000000000000000000000000000000000000000000000000000600052602160045260246000fd5b600860009054906101000a900460ff166002811115610eae577f4e487b7100000000000000000000000000000000000000000000000000000000600052602160045260246000fd5b14610eee576040517f08c379a0000000000000000000000000000000000000000000000000000000008152600401610ee59061148b565b60405180910390fd5b80600660003373ffffffffffffffffffffffffffffffffffffffff1673ffffffffffffffffffffffffffffffffffffffff168152602001908152602001600020541015610f70576040517f08c379a0000000000000000000000000000000000000000000000000000000008152600401610f679061150b565b60405180910390fd5b600081600254610f8091906115d6565b905080471015610fc5576040517f08c379a0000000000000000000000000000000000000000000000000000000008152600401610fbc906114eb565b60405180910390fd5b3373ffffffffffffffffffffffffffffffffffffffff166108fc829081150290604051600060405180830381858888f1935050505015801561100b573d6000803e3d6000fd5b5081600660003373ffffffffffffffffffffffffffffffffffffffff1673ffffffffffffffffffffffffffffffffffffffff168152602001908152602001600020600082825461105b9190611630565b925050819055505050565b600033905090565b60008135905061107d816117ea565b92915050565b60008135905061109281611801565b92915050565b6000602082840312156110aa57600080fd5b60006110b88482850161106e565b91505092915050565b6000602082840312156110d357600080fd5b60006110e184828501611083565b91505092915050565b6110f381611664565b82525050565b611102816116b3565b82525050565b600061111560178361156f565b91507f546865206c6f7474657279206973206e6f74206f70656e0000000000000000006000830152602082019050919050565b600061115560268361156f565b91507f4f776e61626c653a206e6577206f776e657220697320746865207a65726f206160008301527f64647265737300000000000000000000000000000000000000000000000000006020830152604082019050919050565b60006111bb60208361156f565b91507f4174206c65617374206f6e6520706c61796572206973206e65636573736172796000830152602082019050919050565b60006111fb60228361156f565b91507f546865206c6f7474657279206f70656e20706572696f642077617320636c6f7360008301527f65640000000000000000000000000000000000000000000000000000000000006020830152604082019050919050565b600061126160208361156f565b91507f4f776e61626c653a2063616c6c6572206973206e6f7420746865206f776e65726000830152602082019050919050565b60006112a160238361156f565b91507f416d6f756e742073656e7420697320646966666572656e74207468616e20707260008301527f69636500000000000000000000000000000000000000000000000000000000006020830152604082019050919050565b6000611307601f8361156f565b91507f4e6f7420656e6f756768206d6f6e657920696e207468652062616c616e6365006000830152602082019050919050565b6000611347601e8361156f565b91507f596f7520646f206e6f74206861766520656e6f756768207469636b65747300006000830152602082019050919050565b611383816116a9565b82525050565b61139a611395826116a9565b61170e565b82525050565b60006113ac8285611389565b6020820191506113bc8284611389565b6020820191508190509392505050565b60006020820190506113e160008301846110ea565b92915050565b60006040820190506113fc60008301856110ea565b611409602083018461137a565b9392505050565b600060208201905061142560008301846110f9565b92915050565b6000602082019050818103600083015261144481611108565b9050919050565b6000602082019050818103600083015261146481611148565b9050919050565b60006020820190508181036000830152611484816111ae565b9050919050565b600060208201905081810360008301526114a4816111ee565b9050919050565b600060208201905081810360008301526114c481611254565b9050919050565b600060208201905081810360008301526114e481611294565b9050919050565b60006020820190508181036000830152611504816112fa565b9050919050565b600060208201905081810360008301526115248161133a565b9050919050565b6000602082019050611540600083018461137a565b92915050565b600060408201905061155b600083018561137a565b611568602083018461137a565b9392505050565b600082825260208201905092915050565b600061158b826116a9565b9150611596836116a9565b9250827fffffffffffffffffffffffffffffffffffffffffffffffffffffffffffffffff038211156115cb576115ca611749565b5b828201905092915050565b60006115e1826116a9565b91506115ec836116a9565b9250817fffffffffffffffffffffffffffffffffffffffffffffffffffffffffffffffff048311821515161561162557611624611749565b5b828202905092915050565b600061163b826116a9565b9150611646836116a9565b92508282101561165957611658611749565b5b828203905092915050565b600061166f82611689565b9050919050565b6000819050611684826117d6565b919050565b600073ffffffffffffffffffffffffffffffffffffffff82169050919050565b6000819050919050565b60006116be82611676565b9050919050565b60006116d0826116a9565b91507fffffffffffffffffffffffffffffffffffffffffffffffffffffffffffffffff82141561170357611702611749565b5b600182019050919050565b6000819050919050565b6000611723826116a9565b915061172e836116a9565b92508261173e5761173d611778565b5b828206905092915050565b7f4e487b7100000000000000000000000000000000000000000000000000000000600052601160045260246000fd5b7f4e487b7100000000000000000000000000000000000000000000000000000000600052601260045260246000fd5b7f4e487b7100000000000000000000000000000000000000000000000000000000600052602160045260246000fd5b600381106117e7576117e66117a7565b5b50565b6117f381611664565b81146117fe57600080fd5b50565b61180a816116a9565b811461181557600080fd5b5056fea2646970667358221220b8cc61728515f544336929d39aec41a579d8563d94f81bb8c93df1bdaa6ebf9364736f6c63430008000033",
  "linkReferences": {},
  "deployedLinkReferences": {}
}