{
  "_format": "hh-sol-artifact-1",
  "contractName": "Lottery",
  "sourceName": "contracts/Lottery.sol",
  "abi": [
    {
      "inputs": [
        {
          "internalType": "uint256",
          "name": "_ticketPrice",
          "type": "uint256"
        }
      ],
      "stateMutability": "nonpayable",
      "type": "constructor"
    },
    {
      "anonymous": false,
      "inputs": [
        {
          "indexed": true,
          "internalType": "address",
          "name": "previousOwner",
          "type": "address"
        },
        {
          "indexed": true,
          "internalType": "address",
          "name": "newOwner",
          "type": "address"
        }
      ],
      "name": "OwnershipTransferred",
      "type": "event"
    },
    {
      "anonymous": false,
      "inputs": [
        {
          "indexed": false,
          "internalType": "uint256",
          "name": "ticketPrice",
          "type": "uint256"
        }
      ],
      "name": "TicketPriceChanged",
      "type": "event"
    },
    {
      "inputs": [],
      "name": "buyTicket",
      "outputs": [],
      "stateMutability": "payable",
      "type": "function"
    },
    {
      "inputs": [],
      "name": "cancelTickets",
      "outputs": [],
      "stateMutability": "nonpayable",
      "type": "function"
    },
    {
      "inputs": [
        {
          "internalType": "address",
          "name": "_addr",
          "type": "address"
        }
      ],
      "name": "getAddressTickets",
      "outputs": [
        {
          "internalType": "uint256",
          "name": "",
          "type": "uint256"
        }
      ],
      "stateMutability": "view",
      "type": "function"
    },
    {
      "inputs": [],
      "name": "getBalance",
      "outputs": [
        {
          "internalType": "uint256",
          "name": "",
          "type": "uint256"
        }
      ],
      "stateMutability": "view",
      "type": "function"
    },
    {
      "inputs": [],
      "name": "getTotalTickets",
      "outputs": [
        {
          "internalType": "uint256",
          "name": "",
          "type": "uint256"
        }
      ],
      "stateMutability": "view",
      "type": "function"
    },
    {
      "inputs": [],
      "name": "getWinner",
      "outputs": [],
      "stateMutability": "view",
      "type": "function"
    },
    {
      "inputs": [],
      "name": "owner",
      "outputs": [
        {
          "internalType": "address",
          "name": "",
          "type": "address"
        }
      ],
      "stateMutability": "view",
      "type": "function"
    },
    {
      "inputs": [
        {
          "internalType": "uint256",
          "name": "",
          "type": "uint256"
        }
      ],
      "name": "players",
      "outputs": [
        {
          "internalType": "address",
          "name": "",
          "type": "address"
        }
      ],
      "stateMutability": "view",
      "type": "function"
    },
    {
      "inputs": [],
      "name": "renounceOwnership",
      "outputs": [],
      "stateMutability": "nonpayable",
      "type": "function"
    },
    {
      "inputs": [
        {
          "internalType": "uint256",
          "name": "_ticketPrice",
          "type": "uint256"
        }
      ],
      "name": "setTicketPrice",
      "outputs": [],
      "stateMutability": "nonpayable",
      "type": "function"
    },
    {
      "inputs": [],
      "name": "ticketPrice",
      "outputs": [
        {
          "internalType": "uint256",
          "name": "",
          "type": "uint256"
        }
      ],
      "stateMutability": "view",
      "type": "function"
    },
    {
      "inputs": [
        {
          "internalType": "address",
          "name": "newOwner",
          "type": "address"
        }
      ],
      "name": "transferOwnership",
      "outputs": [],
      "stateMutability": "nonpayable",
      "type": "function"
    }
  ],
  "bytecode": "0x608060405234801561001057600080fd5b50604051610ee8380380610ee88339818101604052810190610032919061010a565b60006100426100ed60201b60201c565b9050806000806101000a81548173ffffffffffffffffffffffffffffffffffffffff021916908373ffffffffffffffffffffffffffffffffffffffff1602179055508073ffffffffffffffffffffffffffffffffffffffff16600073ffffffffffffffffffffffffffffffffffffffff167f8be0079c531659141344cd1fd0a4f28419497f9722a3daafe3b4186f6b6457e060405160405180910390a3508060018190555050610154565b600033905090565b6000815190506101048161013d565b92915050565b60006020828403121561011c57600080fd5b600061012a848285016100f5565b91505092915050565b6000819050919050565b61014681610133565b811461015157600080fd5b50565b610d85806101636000396000f3fe6080604052600436106100a75760003560e01c80638da5cb5b116100645780638da5cb5b146101845780638e7ea5b2146101af578063bb6acfc6146101c6578063edca914c14610203578063f2fde38b1461020d578063f71d96cb14610236576100a7565b806306e8337f146100ac57806312065fe0146100d75780631209b1f614610102578063159816501461012d578063715018a61461015657806378b2f82c1461016d575b600080fd5b3480156100b857600080fd5b506100c1610273565b6040516100ce9190610bd7565b60405180910390f35b3480156100e357600080fd5b506100ec610280565b6040516100f99190610bd7565b60405180910390f35b34801561010e57600080fd5b50610117610288565b6040516101249190610bd7565b60405180910390f35b34801561013957600080fd5b50610154600480360381019061014f91906109c6565b61028e565b005b34801561016257600080fd5b5061016b61034d565b005b34801561017957600080fd5b50610182610487565b005b34801561019057600080fd5b50610199610489565b6040516101a69190610b5c565b60405180910390f35b3480156101bb57600080fd5b506101c46104b2565b005b3480156101d257600080fd5b506101ed60048036038101906101e8919061099d565b61057a565b6040516101fa9190610bd7565b60405180910390f35b61020b6105c3565b005b34801561021957600080fd5b50610234600480360381019061022f919061099d565b6106c1565b005b34801561024257600080fd5b5061025d600480360381019061025891906109c6565b61086a565b60405161026a9190610b5c565b60405180910390f35b6000600380549050905090565b600047905090565b60015481565b6102966108a9565b73ffffffffffffffffffffffffffffffffffffffff166102b4610489565b73ffffffffffffffffffffffffffffffffffffffff161461030a576040517f08c379a000000000000000000000000000000000000000000000000000000000815260040161030190610b97565b60405180910390fd5b806001819055507f70aa15e700a2c874a0358150f8fed3716cb8c992634a5321dc6d9a54a161e0b66001546040516103429190610bd7565b60405180910390a150565b6103556108a9565b73ffffffffffffffffffffffffffffffffffffffff16610373610489565b73ffffffffffffffffffffffffffffffffffffffff16146103c9576040517f08c379a00000000000000000000000000000000000000000000000000000000081526004016103c090610b97565b60405180910390fd5b600073ffffffffffffffffffffffffffffffffffffffff1660008054906101000a900473ffffffffffffffffffffffffffffffffffffffff1673ffffffffffffffffffffffffffffffffffffffff167f8be0079c531659141344cd1fd0a4f28419497f9722a3daafe3b4186f6b6457e060405160405180910390a360008060006101000a81548173ffffffffffffffffffffffffffffffffffffffff021916908373ffffffffffffffffffffffffffffffffffffffff160217905550565b565b60008060009054906101000a900473ffffffffffffffffffffffffffffffffffffffff16905090565b6104ba6108a9565b73ffffffffffffffffffffffffffffffffffffffff166104d8610489565b73ffffffffffffffffffffffffffffffffffffffff161461052e576040517f08c379a000000000000000000000000000000000000000000000000000000000815260040161052590610b97565b60405180910390fd5b60006003805490504244604051602001610549929190610b30565b6040516020818303038152906040528051906020012060001c61056c9190610c92565b9050610577816108b1565b50565b6000600260008373ffffffffffffffffffffffffffffffffffffffff1673ffffffffffffffffffffffffffffffffffffffff168152602001908152602001600020549050919050565b6001543414610607576040517f08c379a00000000000000000000000000000000000000000000000000000000081526004016105fe90610bb7565b60405180910390fd5b600260003373ffffffffffffffffffffffffffffffffffffffff1673ffffffffffffffffffffffffffffffffffffffff168152602001908152602001600020600081548092919061065790610c3f565b91905055506003339080600181540180825580915050600190039060005260206000200160009091909190916101000a81548173ffffffffffffffffffffffffffffffffffffffff021916908373ffffffffffffffffffffffffffffffffffffffff160217905550565b6106c96108a9565b73ffffffffffffffffffffffffffffffffffffffff166106e7610489565b73ffffffffffffffffffffffffffffffffffffffff161461073d576040517f08c379a000000000000000000000000000000000000000000000000000000000815260040161073490610b97565b60405180910390fd5b600073ffffffffffffffffffffffffffffffffffffffff168173ffffffffffffffffffffffffffffffffffffffff1614156107ad576040517f08c379a00000000000000000000000000000000000000000000000000000000081526004016107a490610b77565b60405180910390fd5b8073ffffffffffffffffffffffffffffffffffffffff1660008054906101000a900473ffffffffffffffffffffffffffffffffffffffff1673ffffffffffffffffffffffffffffffffffffffff167f8be0079c531659141344cd1fd0a4f28419497f9722a3daafe3b4186f6b6457e060405160405180910390a3806000806101000a81548173ffffffffffffffffffffffffffffffffffffffff021916908373ffffffffffffffffffffffffffffffffffffffff16021790555050565b6003818154811061087a57600080fd5b906000526020600020016000915054906101000a900473ffffffffffffffffffffffffffffffffffffffff1681565b600033905090565b610947816040516024016108c59190610bd7565b6040516020818303038152906040527ff5b1bba9000000000000000000000000000000000000000000000000000000007bffffffffffffffffffffffffffffffffffffffffffffffffffffffff19166020820180517bffffffffffffffffffffffffffffffffffffffffffffffffffffffff838183161783525050505061094a565b50565b60008151905060006a636f6e736f6c652e6c6f679050602083016000808483855afa5050505050565b60008135905061098281610d21565b92915050565b60008135905061099781610d38565b92915050565b6000602082840312156109af57600080fd5b60006109bd84828501610973565b91505092915050565b6000602082840312156109d857600080fd5b60006109e684828501610988565b91505092915050565b6109f881610c03565b82525050565b6000610a0b602683610bf2565b91507f4f776e61626c653a206e6577206f776e657220697320746865207a65726f206160008301527f64647265737300000000000000000000000000000000000000000000000000006020830152604082019050919050565b6000610a71602083610bf2565b91507f4f776e61626c653a2063616c6c6572206973206e6f7420746865206f776e65726000830152602082019050919050565b6000610ab1602983610bf2565b91507f416d6f756e742073656e7420697320646966666572656e74207468616e20746960008301527f636b6574507269636500000000000000000000000000000000000000000000006020830152604082019050919050565b610b1381610c35565b82525050565b610b2a610b2582610c35565b610c88565b82525050565b6000610b3c8285610b19565b602082019150610b4c8284610b19565b6020820191508190509392505050565b6000602082019050610b7160008301846109ef565b92915050565b60006020820190508181036000830152610b90816109fe565b9050919050565b60006020820190508181036000830152610bb081610a64565b9050919050565b60006020820190508181036000830152610bd081610aa4565b9050919050565b6000602082019050610bec6000830184610b0a565b92915050565b600082825260208201905092915050565b6000610c0e82610c15565b9050919050565b600073ffffffffffffffffffffffffffffffffffffffff82169050919050565b6000819050919050565b6000610c4a82610c35565b91507fffffffffffffffffffffffffffffffffffffffffffffffffffffffffffffffff821415610c7d57610c7c610cc3565b5b600182019050919050565b6000819050919050565b6000610c9d82610c35565b9150610ca883610c35565b925082610cb857610cb7610cf2565b5b828206905092915050565b7f4e487b7100000000000000000000000000000000000000000000000000000000600052601160045260246000fd5b7f4e487b7100000000000000000000000000000000000000000000000000000000600052601260045260246000fd5b610d2a81610c03565b8114610d3557600080fd5b50565b610d4181610c35565b8114610d4c57600080fd5b5056fea2646970667358221220e8ae3b580b8c092d657584c13bb170e97addaa4d20f90a513bc93743c0ac5a3f64736f6c63430008000033",
  "linkReferences": {},
  "deployedLinkReferences": {}
}