{
  "_format": "hh-sol-artifact-1",
  "contractName": "LotteryFactory",
  "sourceName": "contracts/LotteryFactory.sol",
  "abi": [
    {
      "inputs": [],
      "stateMutability": "nonpayable",
      "type": "constructor"
    },
    {
      "anonymous": false,
      "inputs": [
        {
          "indexed": false,
          "internalType": "uint256",
          "name": "lotteryId",
          "type": "uint256"
        },
        {
          "indexed": false,
          "internalType": "address",
          "name": "nftAddress",
          "type": "address"
        },
        {
          "indexed": false,
          "internalType": "uint256",
          "name": "nftIndex",
          "type": "uint256"
        },
        {
          "indexed": false,
          "internalType": "uint256",
          "name": "ticketPrice",
          "type": "uint256"
        }
      ],
      "name": "LotteryCreated",
      "type": "event"
    },
    {
      "anonymous": false,
      "inputs": [
        {
          "indexed": false,
          "internalType": "uint256",
          "name": "maxActiveLotteries",
          "type": "uint256"
        }
      ],
      "name": "MaxActiveLotteriesChanged",
      "type": "event"
    },
    {
      "anonymous": false,
      "inputs": [
        {
          "indexed": true,
          "internalType": "address",
          "name": "previousOwner",
          "type": "address"
        },
        {
          "indexed": true,
          "internalType": "address",
          "name": "newOwner",
          "type": "address"
        }
      ],
      "name": "OwnershipTransferred",
      "type": "event"
    },
    {
      "anonymous": false,
      "inputs": [
        {
          "indexed": false,
          "internalType": "uint256",
          "name": "daysOpenPeriod",
          "type": "uint256"
        },
        {
          "indexed": false,
          "internalType": "uint256",
          "name": "daysStakingPeriod",
          "type": "uint256"
        }
      ],
      "name": "PeriodsChanged",
      "type": "event"
    },
    {
      "inputs": [
        {
          "internalType": "address",
          "name": "_nftAddress",
          "type": "address"
        },
        {
          "internalType": "uint256",
          "name": "_nftIndex",
          "type": "uint256"
        },
        {
          "internalType": "uint256",
          "name": "_ticketPrice",
          "type": "uint256"
        }
      ],
      "name": "createLottery",
      "outputs": [],
      "stateMutability": "nonpayable",
      "type": "function"
    },
    {
      "inputs": [],
      "name": "daysOpenPeriod",
      "outputs": [
        {
          "internalType": "uint256",
          "name": "",
          "type": "uint256"
        }
      ],
      "stateMutability": "view",
      "type": "function"
    },
    {
      "inputs": [],
      "name": "daysStakingPeriod",
      "outputs": [
        {
          "internalType": "uint256",
          "name": "",
          "type": "uint256"
        }
      ],
      "stateMutability": "view",
      "type": "function"
    },
    {
      "inputs": [
        {
          "internalType": "uint256",
          "name": "",
          "type": "uint256"
        }
      ],
      "name": "lotteries",
      "outputs": [
        {
          "internalType": "uint256",
          "name": "ticketPrice",
          "type": "uint256"
        },
        {
          "internalType": "contract Lottery",
          "name": "instance",
          "type": "address"
        }
      ],
      "stateMutability": "view",
      "type": "function"
    },
    {
      "inputs": [],
      "name": "maxActiveLotteries",
      "outputs": [
        {
          "internalType": "uint256",
          "name": "",
          "type": "uint256"
        }
      ],
      "stateMutability": "view",
      "type": "function"
    },
    {
      "inputs": [],
      "name": "numberOfActiveLotteries",
      "outputs": [
        {
          "internalType": "uint256",
          "name": "",
          "type": "uint256"
        }
      ],
      "stateMutability": "view",
      "type": "function"
    },
    {
      "inputs": [],
      "name": "owner",
      "outputs": [
        {
          "internalType": "address",
          "name": "",
          "type": "address"
        }
      ],
      "stateMutability": "view",
      "type": "function"
    },
    {
      "inputs": [],
      "name": "renounceOwnership",
      "outputs": [],
      "stateMutability": "nonpayable",
      "type": "function"
    },
    {
      "inputs": [
        {
          "internalType": "uint256",
          "name": "_daysOpenPeriod",
          "type": "uint256"
        },
        {
          "internalType": "uint256",
          "name": "_daysStakingPeriod",
          "type": "uint256"
        }
      ],
      "name": "setDays",
      "outputs": [],
      "stateMutability": "nonpayable",
      "type": "function"
    },
    {
      "inputs": [
        {
          "internalType": "uint256",
          "name": "_maxActiveLotteries",
          "type": "uint256"
        }
      ],
      "name": "setMaxActiveLotteries",
      "outputs": [],
      "stateMutability": "nonpayable",
      "type": "function"
    },
    {
      "inputs": [
        {
          "internalType": "address",
          "name": "newOwner",
          "type": "address"
        }
      ],
      "name": "transferOwnership",
      "outputs": [],
      "stateMutability": "nonpayable",
      "type": "function"
    }
  ],
  "bytecode": "0x608060405234801561001057600080fd5b5060006100216100e460201b60201c565b9050806000806101000a81548173ffffffffffffffffffffffffffffffffffffffff021916908373ffffffffffffffffffffffffffffffffffffffff1602179055508073ffffffffffffffffffffffffffffffffffffffff16600073ffffffffffffffffffffffffffffffffffffffff167f8be0079c531659141344cd1fd0a4f28419497f9722a3daafe3b4186f6b6457e060405160405180910390a35060076002819055506007600381905550600a60048190555060006005819055506100ec565b600033905090565b6120b5806100fb6000396000f3fe60806040523480156200001157600080fd5b5060043610620000b85760003560e01c80639329806b116200007b5780639329806b1462000166578063a02b45b71462000186578063a7fd2d3f14620001a6578063dd8396b214620001c8578063e9673fdd14620001ea578063f2fde38b146200020a57620000b8565b80631398e07614620000bd5780631b3896bc14620000f45780634d0d0da61462000116578063715018a614620001385780638da5cb5b1462000144575b600080fd5b620000db6004803603810190620000d5919062000b0b565b6200022a565b604051620000eb92919062000edf565b60405180910390f35b620000fe6200027f565b6040516200010d919062000e08565b60405180910390f35b6200012062000285565b6040516200012f919062000e08565b60405180910390f35b620001426200028b565b005b6200014e620003cc565b6040516200015d919062000d41565b60405180910390f35b6200018460048036038101906200017e919062000b37565b620003f5565b005b620001a460048036038101906200019e919062000ab5565b620004c9565b005b620001b0620007be565b604051620001bf919062000e08565b60405180910390f35b620001d2620007c4565b604051620001e1919062000e08565b60405180910390f35b62000208600480360381019062000202919062000b0b565b620007ca565b005b62000228600480360381019062000222919062000a89565b62000892565b005b600181815481106200023b57600080fd5b90600052602060002090600202016000915090508060000154908060010160009054906101000a900473ffffffffffffffffffffffffffffffffffffffff16905082565b60055481565b60035481565b6200029562000a45565b73ffffffffffffffffffffffffffffffffffffffff16620002b5620003cc565b73ffffffffffffffffffffffffffffffffffffffff16146200030e576040517f08c379a0000000000000000000000000000000000000000000000000000000008152600401620003059062000dc4565b60405180910390fd5b600073ffffffffffffffffffffffffffffffffffffffff1660008054906101000a900473ffffffffffffffffffffffffffffffffffffffff1673ffffffffffffffffffffffffffffffffffffffff167f8be0079c531659141344cd1fd0a4f28419497f9722a3daafe3b4186f6b6457e060405160405180910390a360008060006101000a81548173ffffffffffffffffffffffffffffffffffffffff021916908373ffffffffffffffffffffffffffffffffffffffff160217905550565b60008060009054906101000a900473ffffffffffffffffffffffffffffffffffffffff16905090565b620003ff62000a45565b73ffffffffffffffffffffffffffffffffffffffff166200041f620003cc565b73ffffffffffffffffffffffffffffffffffffffff161462000478576040517f08c379a00000000000000000000000000000000000000000000000000000000081526004016200046f9062000dc4565b60405180910390fd5b81600281905550806003819055507f2e5ed963e3c9bfef3872fc20360d4d48a07b310e486c3dd9af8ff0a54eef281e600254600354604051620004bd92919062000f0c565b60405180910390a15050565b620004d362000a45565b73ffffffffffffffffffffffffffffffffffffffff16620004f3620003cc565b73ffffffffffffffffffffffffffffffffffffffff16146200054c576040517f08c379a0000000000000000000000000000000000000000000000000000000008152600401620005439062000dc4565b60405180910390fd5b6004546005541062000595576040517f08c379a00000000000000000000000000000000000000000000000000000000081526004016200058c9062000da2565b60405180910390fd5b600073ffffffffffffffffffffffffffffffffffffffff168373ffffffffffffffffffffffffffffffffffffffff16141562000608576040517f08c379a0000000000000000000000000000000000000000000000000000000008152600401620005ff9062000de6565b60405180910390fd5b600081116200064e576040517f08c379a0000000000000000000000000000000000000000000000000000000008152600401620006459062000d80565b60405180910390fd5b60006001805490508484846002546003546040516200066d9062000a4d565b6200067e9695949392919062000e72565b604051809103906000f0801580156200069b573d6000803e3d6000fd5b509050600060405180604001604052808481526020018373ffffffffffffffffffffffffffffffffffffffff16815250905060018190806001815401808255809150506001900390600052602060002090600202016000909190919091506000820151816000015560208201518160010160006101000a81548173ffffffffffffffffffffffffffffffffffffffff021916908373ffffffffffffffffffffffffffffffffffffffff160217905550505060056000815480929190620007619062000feb565b91905055507f58da588946e8e99318cd4696aa161f4fcdda530d97eaf2de679d7b90e0869e29600180805490506200079a919062000f4a565b868686604051620007af949392919062000e25565b60405180910390a15050505050565b60025481565b60045481565b620007d462000a45565b73ffffffffffffffffffffffffffffffffffffffff16620007f4620003cc565b73ffffffffffffffffffffffffffffffffffffffff16146200084d576040517f08c379a0000000000000000000000000000000000000000000000000000000008152600401620008449062000dc4565b60405180910390fd5b806004819055507f8e6f007272e97e755b912180c00307fc61036f18f1cf93e60f14774e3c41d9a760045460405162000887919062000e08565b60405180910390a150565b6200089c62000a45565b73ffffffffffffffffffffffffffffffffffffffff16620008bc620003cc565b73ffffffffffffffffffffffffffffffffffffffff161462000915576040517f08c379a00000000000000000000000000000000000000000000000000000000081526004016200090c9062000dc4565b60405180910390fd5b600073ffffffffffffffffffffffffffffffffffffffff168173ffffffffffffffffffffffffffffffffffffffff16141562000988576040517f08c379a00000000000000000000000000000000000000000000000000000000081526004016200097f9062000d5e565b60405180910390fd5b8073ffffffffffffffffffffffffffffffffffffffff1660008054906101000a900473ffffffffffffffffffffffffffffffffffffffff1673ffffffffffffffffffffffffffffffffffffffff167f8be0079c531659141344cd1fd0a4f28419497f9722a3daafe3b4186f6b6457e060405160405180910390a3806000806101000a81548173ffffffffffffffffffffffffffffffffffffffff021916908373ffffffffffffffffffffffffffffffffffffffff16021790555050565b600033905090565b610fe3806200109d83390190565b60008135905062000a6c8162001068565b92915050565b60008135905062000a838162001082565b92915050565b60006020828403121562000a9c57600080fd5b600062000aac8482850162000a5b565b91505092915050565b60008060006060848603121562000acb57600080fd5b600062000adb8682870162000a5b565b935050602062000aee8682870162000a72565b925050604062000b018682870162000a72565b9150509250925092565b60006020828403121562000b1e57600080fd5b600062000b2e8482850162000a72565b91505092915050565b6000806040838503121562000b4b57600080fd5b600062000b5b8582860162000a72565b925050602062000b6e8582860162000a72565b9150509250929050565b62000b838162000f85565b82525050565b62000b948162000fc3565b82525050565b600062000ba960268362000f39565b91507f4f776e61626c653a206e6577206f776e657220697320746865207a65726f206160008301527f64647265737300000000000000000000000000000000000000000000000000006020830152604082019050919050565b600062000c1160208362000f39565b91507f412076616c6964207469636b65742070726963652069732072657175697265646000830152602082019050919050565b600062000c5360348362000f39565b91507f4d6178696d756d206f6620616374697665206c6f74746572696573206861732060008301527f616c7265616479206265656e20726561636865640000000000000000000000006020830152604082019050919050565b600062000cbb60208362000f39565b91507f4f776e61626c653a2063616c6c6572206973206e6f7420746865206f776e65726000830152602082019050919050565b600062000cfd601b8362000f39565b91507f412076616c6964206164647265737320697320726571756972656400000000006000830152602082019050919050565b62000d3b8162000fb9565b82525050565b600060208201905062000d58600083018462000b78565b92915050565b6000602082019050818103600083015262000d798162000b9a565b9050919050565b6000602082019050818103600083015262000d9b8162000c02565b9050919050565b6000602082019050818103600083015262000dbd8162000c44565b9050919050565b6000602082019050818103600083015262000ddf8162000cac565b9050919050565b6000602082019050818103600083015262000e018162000cee565b9050919050565b600060208201905062000e1f600083018462000d30565b92915050565b600060808201905062000e3c600083018762000d30565b62000e4b602083018662000b78565b62000e5a604083018562000d30565b62000e69606083018462000d30565b95945050505050565b600060c08201905062000e89600083018962000d30565b62000e98602083018862000b78565b62000ea7604083018762000d30565b62000eb6606083018662000d30565b62000ec5608083018562000d30565b62000ed460a083018462000d30565b979650505050505050565b600060408201905062000ef6600083018562000d30565b62000f05602083018462000b89565b9392505050565b600060408201905062000f23600083018562000d30565b62000f32602083018462000d30565b9392505050565b600082825260208201905092915050565b600062000f578262000fb9565b915062000f648362000fb9565b92508282101562000f7a5762000f7962001039565b5b828203905092915050565b600062000f928262000f99565b9050919050565b600073ffffffffffffffffffffffffffffffffffffffff82169050919050565b6000819050919050565b600062000fd08262000fd7565b9050919050565b600062000fe48262000f99565b9050919050565b600062000ff88262000fb9565b91507fffffffffffffffffffffffffffffffffffffffffffffffffffffffffffffffff8214156200102e576200102d62001039565b5b600182019050919050565b7f4e487b7100000000000000000000000000000000000000000000000000000000600052601160045260246000fd5b620010738162000f85565b81146200107f57600080fd5b50565b6200108d8162000fb9565b81146200109957600080fd5b5056fe60806040523480156200001157600080fd5b5060405162000fe338038062000fe383398181016040528101906200003791906200019a565b6000620000496200016460201b60201c565b9050806000806101000a81548173ffffffffffffffffffffffffffffffffffffffff021916908373ffffffffffffffffffffffffffffffffffffffff1602179055508073ffffffffffffffffffffffffffffffffffffffff16600073ffffffffffffffffffffffffffffffffffffffff167f8be0079c531659141344cd1fd0a4f28419497f9722a3daafe3b4186f6b6457e060405160405180910390a3508560018190555082600281905550816003819055508060048190555084600660000160006101000a81548173ffffffffffffffffffffffffffffffffffffffff021916908373ffffffffffffffffffffffffffffffffffffffff1602179055508360066001018190555042600581905550505050505050620002a2565b600033905090565b6000815190506200017d816200026e565b92915050565b600081519050620001948162000288565b92915050565b60008060008060008060c08789031215620001b457600080fd5b6000620001c489828a0162000183565b9650506020620001d789828a016200016c565b9550506040620001ea89828a0162000183565b9450506060620001fd89828a0162000183565b93505060806200021089828a0162000183565b92505060a06200022389828a0162000183565b9150509295509295509295565b60006200023d8262000244565b9050919050565b600073ffffffffffffffffffffffffffffffffffffffff82169050919050565b6000819050919050565b620002798162000230565b81146200028557600080fd5b50565b620002938162000264565b81146200029f57600080fd5b50565b610d3180620002b26000396000f3fe60806040526004361061009c5760003560e01c8063715018a611610064578063715018a61461016a5780638da5cb5b14610181578063bb6acfc6146101ac578063e580f47b146101e9578063f2fde38b14610214578063f71d96cb1461023d5761009c565b806306e8337f146100a157806312065fe0146100cc5780631209b1f6146100f75780632f3666371461012257806347ccca021461013e575b600080fd5b3480156100ad57600080fd5b506100b661027a565b6040516100c39190610b14565b60405180910390f35b3480156100d857600080fd5b506100e1610287565b6040516100ee9190610b14565b60405180910390f35b34801561010357600080fd5b5061010c61028f565b6040516101199190610b14565b60405180910390f35b61013c60048036038101906101379190610897565b610295565b005b34801561014a57600080fd5b50610153610470565b604051610161929190610a6b565b60405180910390f35b34801561017657600080fd5b5061017f6104a2565b005b34801561018d57600080fd5b506101966105dc565b6040516101a39190610a50565b60405180910390f35b3480156101b857600080fd5b506101d360048036038101906101ce919061086e565b610605565b6040516101e09190610b14565b60405180910390f35b3480156101f557600080fd5b506101fe61064e565b60405161020b9190610b14565b60405180910390f35b34801561022057600080fd5b5061023b6004803603810190610236919061086e565b610654565b005b34801561024957600080fd5b50610264600480360381019061025f9190610897565b6107fd565b6040516102719190610a50565b60405180910390f35b6000600980549050905090565b600047905090565b60025481565b620151806003546102a69190610bbf565b6005546102b39190610b69565b42106102f4576040517f08c379a00000000000000000000000000000000000000000000000000000000081526004016102eb90610ab4565b60405180910390fd5b806002546103029190610bbf565b3414610343576040517f08c379a000000000000000000000000000000000000000000000000000000000815260040161033a90610af4565b60405180910390fd5b80600860003373ffffffffffffffffffffffffffffffffffffffff1673ffffffffffffffffffffffffffffffffffffffff16815260200190815260200160002060008282546103929190610b69565b9250508190555060005b8181101561041a576009339080600181540180825580915050600190039060005260206000200160009091909190916101000a81548173ffffffffffffffffffffffffffffffffffffffff021916908373ffffffffffffffffffffffffffffffffffffffff160217905550808061041290610c55565b91505061039c565b503373ffffffffffffffffffffffffffffffffffffffff167f2fe7f3fce87dc8184aed61d2307d6f46c968decd48a64b99c3d961a4c8d9b7bd60015483604051610465929190610b2f565b60405180910390a250565b60068060000160009054906101000a900473ffffffffffffffffffffffffffffffffffffffff16908060010154905082565b6104aa61083c565b73ffffffffffffffffffffffffffffffffffffffff166104c86105dc565b73ffffffffffffffffffffffffffffffffffffffff161461051e576040517f08c379a000000000000000000000000000000000000000000000000000000000815260040161051590610ad4565b60405180910390fd5b600073ffffffffffffffffffffffffffffffffffffffff1660008054906101000a900473ffffffffffffffffffffffffffffffffffffffff1673ffffffffffffffffffffffffffffffffffffffff167f8be0079c531659141344cd1fd0a4f28419497f9722a3daafe3b4186f6b6457e060405160405180910390a360008060006101000a81548173ffffffffffffffffffffffffffffffffffffffff021916908373ffffffffffffffffffffffffffffffffffffffff160217905550565b60008060009054906101000a900473ffffffffffffffffffffffffffffffffffffffff16905090565b6000600860008373ffffffffffffffffffffffffffffffffffffffff1673ffffffffffffffffffffffffffffffffffffffff168152602001908152602001600020549050919050565b60015481565b61065c61083c565b73ffffffffffffffffffffffffffffffffffffffff1661067a6105dc565b73ffffffffffffffffffffffffffffffffffffffff16146106d0576040517f08c379a00000000000000000000000000000000000000000000000000000000081526004016106c790610ad4565b60405180910390fd5b600073ffffffffffffffffffffffffffffffffffffffff168173ffffffffffffffffffffffffffffffffffffffff161415610740576040517f08c379a000000000000000000000000000000000000000000000000000000000815260040161073790610a94565b60405180910390fd5b8073ffffffffffffffffffffffffffffffffffffffff1660008054906101000a900473ffffffffffffffffffffffffffffffffffffffff1673ffffffffffffffffffffffffffffffffffffffff167f8be0079c531659141344cd1fd0a4f28419497f9722a3daafe3b4186f6b6457e060405160405180910390a3806000806101000a81548173ffffffffffffffffffffffffffffffffffffffff021916908373ffffffffffffffffffffffffffffffffffffffff16021790555050565b6009818154811061080d57600080fd5b906000526020600020016000915054906101000a900473ffffffffffffffffffffffffffffffffffffffff1681565b600033905090565b60008135905061085381610ccd565b92915050565b60008135905061086881610ce4565b92915050565b60006020828403121561088057600080fd5b600061088e84828501610844565b91505092915050565b6000602082840312156108a957600080fd5b60006108b784828501610859565b91505092915050565b6108c981610c19565b82525050565b60006108dc602683610b58565b91507f4f776e61626c653a206e6577206f776e657220697320746865207a65726f206160008301527f64647265737300000000000000000000000000000000000000000000000000006020830152604082019050919050565b6000610942602283610b58565b91507f546865206c6f7474657279206f70656e20706572696f642077617320636c6f7360008301527f65640000000000000000000000000000000000000000000000000000000000006020830152604082019050919050565b60006109a8602083610b58565b91507f4f776e61626c653a2063616c6c6572206973206e6f7420746865206f776e65726000830152602082019050919050565b60006109e8602383610b58565b91507f416d6f756e742073656e7420697320646966666572656e74207468616e20707260008301527f69636500000000000000000000000000000000000000000000000000000000006020830152604082019050919050565b610a4a81610c4b565b82525050565b6000602082019050610a6560008301846108c0565b92915050565b6000604082019050610a8060008301856108c0565b610a8d6020830184610a41565b9392505050565b60006020820190508181036000830152610aad816108cf565b9050919050565b60006020820190508181036000830152610acd81610935565b9050919050565b60006020820190508181036000830152610aed8161099b565b9050919050565b60006020820190508181036000830152610b0d816109db565b9050919050565b6000602082019050610b296000830184610a41565b92915050565b6000604082019050610b446000830185610a41565b610b516020830184610a41565b9392505050565b600082825260208201905092915050565b6000610b7482610c4b565b9150610b7f83610c4b565b9250827fffffffffffffffffffffffffffffffffffffffffffffffffffffffffffffffff03821115610bb457610bb3610c9e565b5b828201905092915050565b6000610bca82610c4b565b9150610bd583610c4b565b9250817fffffffffffffffffffffffffffffffffffffffffffffffffffffffffffffffff0483118215151615610c0e57610c0d610c9e565b5b828202905092915050565b6000610c2482610c2b565b9050919050565b600073ffffffffffffffffffffffffffffffffffffffff82169050919050565b6000819050919050565b6000610c6082610c4b565b91507fffffffffffffffffffffffffffffffffffffffffffffffffffffffffffffffff821415610c9357610c92610c9e565b5b600182019050919050565b7f4e487b7100000000000000000000000000000000000000000000000000000000600052601160045260246000fd5b610cd681610c19565b8114610ce157600080fd5b50565b610ced81610c4b565b8114610cf857600080fd5b5056fea26469706673582212205d331b6cff4b2552c1f8b147231c348e1366407619eba60d2c0e3571f13abf4264736f6c63430008000033a2646970667358221220c878a54519bf5a579385c889cab00913220f07e60ef09648db844c9209c3ce8864736f6c63430008000033",
  "linkReferences": {},
  "deployedLinkReferences": {}
}