{
  "_format": "hh-sol-artifact-1",
  "contractName": "LotteryFactory",
  "sourceName": "contracts/LotteryFactory.sol",
  "abi": [
    {
      "inputs": [],
      "stateMutability": "nonpayable",
      "type": "constructor"
    },
    {
      "anonymous": false,
      "inputs": [
        {
          "indexed": false,
          "internalType": "uint256",
          "name": "lotteryId",
          "type": "uint256"
        },
        {
          "indexed": false,
          "internalType": "address",
          "name": "lotteryAddress",
          "type": "address"
        },
        {
          "indexed": false,
          "internalType": "address",
          "name": "nftAddress",
          "type": "address"
        },
        {
          "indexed": false,
          "internalType": "uint256",
          "name": "nftIndex",
          "type": "uint256"
        },
        {
          "indexed": false,
          "internalType": "uint256",
          "name": "ticketPrice",
          "type": "uint256"
        }
      ],
      "name": "LotteryCreated",
      "type": "event"
    },
    {
      "anonymous": false,
      "inputs": [
        {
          "indexed": false,
          "internalType": "uint256",
          "name": "maxActiveLotteries",
          "type": "uint256"
        }
      ],
      "name": "MaxActiveLotteriesChanged",
      "type": "event"
    },
    {
      "anonymous": false,
      "inputs": [
        {
          "indexed": true,
          "internalType": "address",
          "name": "previousOwner",
          "type": "address"
        },
        {
          "indexed": true,
          "internalType": "address",
          "name": "newOwner",
          "type": "address"
        }
      ],
      "name": "OwnershipTransferred",
      "type": "event"
    },
    {
      "anonymous": false,
      "inputs": [
        {
          "indexed": false,
          "internalType": "uint256",
          "name": "daysOpenPeriod",
          "type": "uint256"
        },
        {
          "indexed": false,
          "internalType": "uint256",
          "name": "daysStakingPeriod",
          "type": "uint256"
        }
      ],
      "name": "PeriodsChanged",
      "type": "event"
    },
    {
      "inputs": [
        {
          "internalType": "address",
          "name": "_nftAddress",
          "type": "address"
        },
        {
          "internalType": "uint256",
          "name": "_nftIndex",
          "type": "uint256"
        },
        {
          "internalType": "uint256",
          "name": "_ticketPrice",
          "type": "uint256"
        }
      ],
      "name": "createLottery",
      "outputs": [],
      "stateMutability": "nonpayable",
      "type": "function"
    },
    {
      "inputs": [
        {
          "internalType": "uint256",
          "name": "_lotteryId",
          "type": "uint256"
        }
      ],
      "name": "declareWinner",
      "outputs": [],
      "stateMutability": "nonpayable",
      "type": "function"
    },
    {
      "inputs": [
        {
          "internalType": "uint256",
          "name": "_lotteryId",
          "type": "uint256"
        }
      ],
      "name": "launchStaking",
      "outputs": [],
      "stateMutability": "nonpayable",
      "type": "function"
    },
    {
      "inputs": [
        {
          "internalType": "uint256",
          "name": "",
          "type": "uint256"
        }
      ],
      "name": "lotteries",
      "outputs": [
        {
          "internalType": "contract Lottery",
          "name": "",
          "type": "address"
        }
      ],
      "stateMutability": "view",
      "type": "function"
    },
    {
      "inputs": [],
      "name": "maxActiveLotteries",
      "outputs": [
        {
          "internalType": "uint256",
          "name": "",
          "type": "uint256"
        }
      ],
      "stateMutability": "view",
      "type": "function"
    },
    {
      "inputs": [],
      "name": "numberOfActiveLotteries",
      "outputs": [
        {
          "internalType": "uint256",
          "name": "",
          "type": "uint256"
        }
      ],
      "stateMutability": "view",
      "type": "function"
    },
    {
      "inputs": [],
      "name": "owner",
      "outputs": [
        {
          "internalType": "address",
          "name": "",
          "type": "address"
        }
      ],
      "stateMutability": "view",
      "type": "function"
    },
    {
      "inputs": [],
      "name": "renounceOwnership",
      "outputs": [],
      "stateMutability": "nonpayable",
      "type": "function"
    },
    {
      "inputs": [
        {
          "internalType": "uint256",
          "name": "_maxActiveLotteries",
          "type": "uint256"
        }
      ],
      "name": "setMaxActiveLotteries",
      "outputs": [],
      "stateMutability": "nonpayable",
      "type": "function"
    },
    {
      "inputs": [
        {
          "internalType": "address",
          "name": "newOwner",
          "type": "address"
        }
      ],
      "name": "transferOwnership",
      "outputs": [],
      "stateMutability": "nonpayable",
      "type": "function"
    }
  ],
  "bytecode": "0x608060405234801561001057600080fd5b5060006100216100d460201b60201c565b9050806000806101000a81548173ffffffffffffffffffffffffffffffffffffffff021916908373ffffffffffffffffffffffffffffffffffffffff1602179055508073ffffffffffffffffffffffffffffffffffffffff16600073ffffffffffffffffffffffffffffffffffffffff167f8be0079c531659141344cd1fd0a4f28419497f9722a3daafe3b4186f6b6457e060405160405180910390a350600a60028190555060006003819055506100dc565b600033905090565b612cc6806100eb6000396000f3fe60806040523480156200001157600080fd5b5060043610620000ab5760003560e01c80638da5cb5b116200006f5780638da5cb5b1462000154578063a02b45b71462000176578063dd8396b21462000196578063e9673fdd14620001b8578063f2fde38b14620001d857620000ab565b8062c2943c14620000b05780631398e07614620000d05780631b3896bc14620001065780636e43ec6c1462000128578063715018a61462000148575b600080fd5b620000ce6004803603810190620000c8919062000c46565b620001f8565b005b620000ee6004803603810190620000e8919062000c46565b6200035f565b604051620000fd919062000e58565b60405180910390f35b620001106200039f565b6040516200011f919062000f1f565b60405180910390f35b62000146600480360381019062000140919062000c46565b620003a5565b005b62000152620004f2565b005b6200015e62000633565b6040516200016d919062000e3b565b60405180910390f35b6200019460048036038101906200018e919062000bf0565b6200065c565b005b620001a0620008ff565b604051620001af919062000f1f565b60405180910390f35b620001d66004803603810190620001d0919062000c46565b62000905565b005b620001f66004803603810190620001f0919062000bc4565b620009cd565b005b6200020262000b80565b73ffffffffffffffffffffffffffffffffffffffff166200022262000633565b73ffffffffffffffffffffffffffffffffffffffff16146200027b576040517f08c379a0000000000000000000000000000000000000000000000000000000008152600401620002729062000edb565b60405180910390fd5b60018181548110620002b6577f4e487b7100000000000000000000000000000000000000000000000000000000600052603260045260246000fd5b9060005260206000200160009054906101000a900473ffffffffffffffffffffffffffffffffffffffff1673ffffffffffffffffffffffffffffffffffffffff166314034bd26040518163ffffffff1660e01b8152600401600060405180830381600087803b1580156200032957600080fd5b505af11580156200033e573d6000803e3d6000fd5b5050505060036000815480929190620003579062001098565b919050555050565b600181815481106200037057600080fd5b906000526020600020016000915054906101000a900473ffffffffffffffffffffffffffffffffffffffff1681565b60035481565b620003af62000b80565b73ffffffffffffffffffffffffffffffffffffffff16620003cf62000633565b73ffffffffffffffffffffffffffffffffffffffff161462000428576040517f08c379a00000000000000000000000000000000000000000000000000000000081526004016200041f9062000edb565b60405180910390fd5b6001818154811062000463577f4e487b7100000000000000000000000000000000000000000000000000000000600052603260045260246000fd5b9060005260206000200160009054906101000a900473ffffffffffffffffffffffffffffffffffffffff1673ffffffffffffffffffffffffffffffffffffffff1663a30a24746040518163ffffffff1660e01b8152600401600060405180830381600087803b158015620004d657600080fd5b505af1158015620004eb573d6000803e3d6000fd5b5050505050565b620004fc62000b80565b73ffffffffffffffffffffffffffffffffffffffff166200051c62000633565b73ffffffffffffffffffffffffffffffffffffffff161462000575576040517f08c379a00000000000000000000000000000000000000000000000000000000081526004016200056c9062000edb565b60405180910390fd5b600073ffffffffffffffffffffffffffffffffffffffff1660008054906101000a900473ffffffffffffffffffffffffffffffffffffffff1673ffffffffffffffffffffffffffffffffffffffff167f8be0079c531659141344cd1fd0a4f28419497f9722a3daafe3b4186f6b6457e060405160405180910390a360008060006101000a81548173ffffffffffffffffffffffffffffffffffffffff021916908373ffffffffffffffffffffffffffffffffffffffff160217905550565b60008060009054906101000a900473ffffffffffffffffffffffffffffffffffffffff16905090565b6200066662000b80565b73ffffffffffffffffffffffffffffffffffffffff166200068662000633565b73ffffffffffffffffffffffffffffffffffffffff1614620006df576040517f08c379a0000000000000000000000000000000000000000000000000000000008152600401620006d69062000edb565b60405180910390fd5b6002546003541062000728576040517f08c379a00000000000000000000000000000000000000000000000000000000081526004016200071f9062000eb9565b60405180910390fd5b600073ffffffffffffffffffffffffffffffffffffffff168373ffffffffffffffffffffffffffffffffffffffff1614156200079b576040517f08c379a0000000000000000000000000000000000000000000000000000000008152600401620007929062000efd565b60405180910390fd5b60008111620007e1576040517f08c379a0000000000000000000000000000000000000000000000000000000008152600401620007d89062000e97565b60405180910390fd5b6000600180549050848484604051620007fa9062000b88565b62000809949392919062000f99565b604051809103906000f08015801562000826573d6000803e3d6000fd5b5090506001819080600181540180825580915050600190039060005260206000200160009091909190916101000a81548173ffffffffffffffffffffffffffffffffffffffff021916908373ffffffffffffffffffffffffffffffffffffffff16021790555060036000815480929190620008a190620010c7565b91905055507f3c1be61d2c51c4d0b7ab89a532c003cc156d5ff9f3976ffbdb02a2ad3df8f07460018080549050620008da919062000ff7565b82868686604051620008f195949392919062000f3c565b60405180910390a150505050565b60025481565b6200090f62000b80565b73ffffffffffffffffffffffffffffffffffffffff166200092f62000633565b73ffffffffffffffffffffffffffffffffffffffff161462000988576040517f08c379a00000000000000000000000000000000000000000000000000000000081526004016200097f9062000edb565b60405180910390fd5b806002819055507f8e6f007272e97e755b912180c00307fc61036f18f1cf93e60f14774e3c41d9a7600254604051620009c2919062000f1f565b60405180910390a150565b620009d762000b80565b73ffffffffffffffffffffffffffffffffffffffff16620009f762000633565b73ffffffffffffffffffffffffffffffffffffffff161462000a50576040517f08c379a000000000000000000000000000000000000000000000000000000000815260040162000a479062000edb565b60405180910390fd5b600073ffffffffffffffffffffffffffffffffffffffff168173ffffffffffffffffffffffffffffffffffffffff16141562000ac3576040517f08c379a000000000000000000000000000000000000000000000000000000000815260040162000aba9062000e75565b60405180910390fd5b8073ffffffffffffffffffffffffffffffffffffffff1660008054906101000a900473ffffffffffffffffffffffffffffffffffffffff1673ffffffffffffffffffffffffffffffffffffffff167f8be0079c531659141344cd1fd0a4f28419497f9722a3daafe3b4186f6b6457e060405160405180910390a3806000806101000a81548173ffffffffffffffffffffffffffffffffffffffff021916908373ffffffffffffffffffffffffffffffffffffffff16021790555050565b600033905090565b611b18806200117983390190565b60008135905062000ba78162001144565b92915050565b60008135905062000bbe816200115e565b92915050565b60006020828403121562000bd757600080fd5b600062000be78482850162000b96565b91505092915050565b60008060006060848603121562000c0657600080fd5b600062000c168682870162000b96565b935050602062000c298682870162000bad565b925050604062000c3c8682870162000bad565b9150509250925092565b60006020828403121562000c5957600080fd5b600062000c698482850162000bad565b91505092915050565b62000c7d8162001032565b82525050565b62000c8e8162001070565b82525050565b600062000ca360268362000fe6565b91507f4f776e61626c653a206e6577206f776e657220697320746865207a65726f206160008301527f64647265737300000000000000000000000000000000000000000000000000006020830152604082019050919050565b600062000d0b60208362000fe6565b91507f412076616c6964207469636b65742070726963652069732072657175697265646000830152602082019050919050565b600062000d4d60348362000fe6565b91507f4d6178696d756d206f6620616374697665206c6f74746572696573206861732060008301527f616c7265616479206265656e20726561636865640000000000000000000000006020830152604082019050919050565b600062000db560208362000fe6565b91507f4f776e61626c653a2063616c6c6572206973206e6f7420746865206f776e65726000830152602082019050919050565b600062000df7601b8362000fe6565b91507f412076616c6964206164647265737320697320726571756972656400000000006000830152602082019050919050565b62000e358162001066565b82525050565b600060208201905062000e52600083018462000c72565b92915050565b600060208201905062000e6f600083018462000c83565b92915050565b6000602082019050818103600083015262000e908162000c94565b9050919050565b6000602082019050818103600083015262000eb28162000cfc565b9050919050565b6000602082019050818103600083015262000ed48162000d3e565b9050919050565b6000602082019050818103600083015262000ef68162000da6565b9050919050565b6000602082019050818103600083015262000f188162000de8565b9050919050565b600060208201905062000f36600083018462000e2a565b92915050565b600060a08201905062000f53600083018862000e2a565b62000f62602083018762000c72565b62000f71604083018662000c72565b62000f80606083018562000e2a565b62000f8f608083018462000e2a565b9695505050505050565b600060808201905062000fb0600083018762000e2a565b62000fbf602083018662000c72565b62000fce604083018562000e2a565b62000fdd606083018462000e2a565b95945050505050565b600082825260208201905092915050565b6000620010048262001066565b9150620010118362001066565b92508282101562001027576200102662001115565b5b828203905092915050565b60006200103f8262001046565b9050919050565b600073ffffffffffffffffffffffffffffffffffffffff82169050919050565b6000819050919050565b60006200107d8262001084565b9050919050565b6000620010918262001046565b9050919050565b6000620010a58262001066565b91506000821415620010bc57620010bb62001115565b5b600182039050919050565b6000620010d48262001066565b91507fffffffffffffffffffffffffffffffffffffffffffffffffffffffffffffffff8214156200110a576200110962001115565b5b600182019050919050565b7f4e487b7100000000000000000000000000000000000000000000000000000000600052601160045260246000fd5b6200114f8162001032565b81146200115b57600080fd5b50565b620011698162001066565b81146200117557600080fd5b5056fe60806040523480156200001157600080fd5b5060405162001b1838038062001b188339818101604052810190620000379190620001dc565b600062000049620001a660201b60201c565b9050806000806101000a81548173ffffffffffffffffffffffffffffffffffffffff021916908373ffffffffffffffffffffffffffffffffffffffff1602179055508073ffffffffffffffffffffffffffffffffffffffff16600073ffffffffffffffffffffffffffffffffffffffff167f8be0079c531659141344cd1fd0a4f28419497f9722a3daafe3b4186f6b6457e060405160405180910390a350836001819055508060028190555082600460000160006101000a81548173ffffffffffffffffffffffffffffffffffffffff021916908373ffffffffffffffffffffffffffffffffffffffff160217905550816004600101819055506000600860006101000a81548160ff0219169083600281111562000190577f4e487b7100000000000000000000000000000000000000000000000000000000600052602160045260246000fd5b02179055504260038190555050505050620002ba565b600033905090565b600081519050620001bf8162000286565b92915050565b600081519050620001d681620002a0565b92915050565b60008060008060808587031215620001f357600080fd5b60006200020387828801620001c5565b94505060206200021687828801620001ae565b93505060406200022987828801620001c5565b92505060606200023c87828801620001c5565b91505092959194509250565b600062000255826200025c565b9050919050565b600073ffffffffffffffffffffffffffffffffffffffff82169050919050565b6000819050919050565b620002918162000248565b81146200029d57600080fd5b50565b620002ab816200027c565b8114620002b757600080fd5b50565b61184e80620002ca6000396000f3fe6080604052600436106100f35760003560e01c8063a30a24741161008a578063e580f47b11610059578063e580f47b146102c4578063f2fde38b146102ef578063f71d96cb14610318578063fc22389a14610355576100f3565b8063a30a24741461021a578063bb6acfc614610231578063c19d93fb1461026e578063dfbf53ae14610299576100f3565b80632f366637116100c65780632f3666371461019057806347ccca02146101ac578063715018a6146101d85780638da5cb5b146101ef576100f3565b806306e8337f146100f857806312065fe0146101235780631209b1f61461014e57806314034bd214610179575b600080fd5b34801561010457600080fd5b5061010d61037e565b60405161011a919061152b565b60405180910390f35b34801561012f57600080fd5b5061013861038b565b604051610145919061152b565b60405180910390f35b34801561015a57600080fd5b50610163610393565b604051610170919061152b565b60405180910390f35b34801561018557600080fd5b5061018e610399565b005b6101aa60048036038101906101a591906110c1565b610658565b005b3480156101b857600080fd5b506101c1610896565b6040516101cf9291906113e7565b60405180910390f35b3480156101e457600080fd5b506101ed6108c8565b005b3480156101fb57600080fd5b50610204610a02565b60405161021191906113cc565b60405180910390f35b34801561022657600080fd5b5061022f610a2b565b005b34801561023d57600080fd5b5061025860048036038101906102539190611098565b610bbc565b604051610265919061152b565b60405180910390f35b34801561027a57600080fd5b50610283610c05565b6040516102909190611410565b60405180910390f35b3480156102a557600080fd5b506102ae610c18565b6040516102bb91906113cc565b60405180910390f35b3480156102d057600080fd5b506102d9610c3e565b6040516102e6919061152b565b60405180910390f35b3480156102fb57600080fd5b5061031660048036038101906103119190611098565b610c44565b005b34801561032457600080fd5b5061033f600480360381019061033a91906110c1565b610ded565b60405161034c91906113cc565b60405180910390f35b34801561036157600080fd5b5061037c600480360381019061037791906110c1565b610e2c565b005b6000600780549050905090565b600047905090565b60025481565b6103a1611066565b73ffffffffffffffffffffffffffffffffffffffff166103bf610a02565b73ffffffffffffffffffffffffffffffffffffffff1614610415576040517f08c379a000000000000000000000000000000000000000000000000000000000815260040161040c906114ab565b60405180910390fd5b60028081111561044e577f4e487b7100000000000000000000000000000000000000000000000000000000600052602160045260246000fd5b600860009054906101000a900460ff166002811115610496577f4e487b7100000000000000000000000000000000000000000000000000000000600052602160045260246000fd5b14156104d7576040517f08c379a00000000000000000000000000000000000000000000000000000000081526004016104ce9061142b565b60405180910390fd5b60006007805490501161051f576040517f08c379a00000000000000000000000000000000000000000000000000000000081526004016105169061146b565b60405180910390fd5b6000600780549050424460405160200161053a9291906113a0565b6040516020818303038152906040528051906020012060001c61055d9190611718565b905060078181548110610599577f4e487b7100000000000000000000000000000000000000000000000000000000600052603260045260246000fd5b9060005260206000200160009054906101000a900473ffffffffffffffffffffffffffffffffffffffff16600860016101000a81548173ffffffffffffffffffffffffffffffffffffffff021916908373ffffffffffffffffffffffffffffffffffffffff1602179055506002600860006101000a81548160ff02191690836002811115610650577f4e487b7100000000000000000000000000000000000000000000000000000000600052602160045260246000fd5b021790555050565b60006002811115610692577f4e487b7100000000000000000000000000000000000000000000000000000000600052602160045260246000fd5b600860009054906101000a900460ff1660028111156106da577f4e487b7100000000000000000000000000000000000000000000000000000000600052602160045260246000fd5b1461071a576040517f08c379a00000000000000000000000000000000000000000000000000000000081526004016107119061148b565b60405180910390fd5b8060025461072891906115d6565b3414610769576040517f08c379a0000000000000000000000000000000000000000000000000000000008152600401610760906114cb565b60405180910390fd5b80600660003373ffffffffffffffffffffffffffffffffffffffff1673ffffffffffffffffffffffffffffffffffffffff16815260200190815260200160002060008282546107b89190611580565b9250508190555060005b81811015610840576007339080600181540180825580915050600190039060005260206000200160009091909190916101000a81548173ffffffffffffffffffffffffffffffffffffffff021916908373ffffffffffffffffffffffffffffffffffffffff1602179055508080610838906116c5565b9150506107c2565b503373ffffffffffffffffffffffffffffffffffffffff167f2fe7f3fce87dc8184aed61d2307d6f46c968decd48a64b99c3d961a4c8d9b7bd6001548360405161088b929190611546565b60405180910390a250565b60048060000160009054906101000a900473ffffffffffffffffffffffffffffffffffffffff16908060010154905082565b6108d0611066565b73ffffffffffffffffffffffffffffffffffffffff166108ee610a02565b73ffffffffffffffffffffffffffffffffffffffff1614610944576040517f08c379a000000000000000000000000000000000000000000000000000000000815260040161093b906114ab565b60405180910390fd5b600073ffffffffffffffffffffffffffffffffffffffff1660008054906101000a900473ffffffffffffffffffffffffffffffffffffffff1673ffffffffffffffffffffffffffffffffffffffff167f8be0079c531659141344cd1fd0a4f28419497f9722a3daafe3b4186f6b6457e060405160405180910390a360008060006101000a81548173ffffffffffffffffffffffffffffffffffffffff021916908373ffffffffffffffffffffffffffffffffffffffff160217905550565b60008060009054906101000a900473ffffffffffffffffffffffffffffffffffffffff16905090565b610a33611066565b73ffffffffffffffffffffffffffffffffffffffff16610a51610a02565b73ffffffffffffffffffffffffffffffffffffffff1614610aa7576040517f08c379a0000000000000000000000000000000000000000000000000000000008152600401610a9e906114ab565b60405180910390fd5b60006002811115610ae1577f4e487b7100000000000000000000000000000000000000000000000000000000600052602160045260246000fd5b600860009054906101000a900460ff166002811115610b29577f4e487b7100000000000000000000000000000000000000000000000000000000600052602160045260246000fd5b14610b69576040517f08c379a0000000000000000000000000000000000000000000000000000000008152600401610b609061142b565b60405180910390fd5b6001600860006101000a81548160ff02191690836002811115610bb5577f4e487b7100000000000000000000000000000000000000000000000000000000600052602160045260246000fd5b0217905550565b6000600660008373ffffffffffffffffffffffffffffffffffffffff1673ffffffffffffffffffffffffffffffffffffffff168152602001908152602001600020549050919050565b600860009054906101000a900460ff1681565b600860019054906101000a900473ffffffffffffffffffffffffffffffffffffffff1681565b60015481565b610c4c611066565b73ffffffffffffffffffffffffffffffffffffffff16610c6a610a02565b73ffffffffffffffffffffffffffffffffffffffff1614610cc0576040517f08c379a0000000000000000000000000000000000000000000000000000000008152600401610cb7906114ab565b60405180910390fd5b600073ffffffffffffffffffffffffffffffffffffffff168173ffffffffffffffffffffffffffffffffffffffff161415610d30576040517f08c379a0000000000000000000000000000000000000000000000000000000008152600401610d279061144b565b60405180910390fd5b8073ffffffffffffffffffffffffffffffffffffffff1660008054906101000a900473ffffffffffffffffffffffffffffffffffffffff1673ffffffffffffffffffffffffffffffffffffffff167f8be0079c531659141344cd1fd0a4f28419497f9722a3daafe3b4186f6b6457e060405160405180910390a3806000806101000a81548173ffffffffffffffffffffffffffffffffffffffff021916908373ffffffffffffffffffffffffffffffffffffffff16021790555050565b60078181548110610dfd57600080fd5b906000526020600020016000915054906101000a900473ffffffffffffffffffffffffffffffffffffffff1681565b60006002811115610e66577f4e487b7100000000000000000000000000000000000000000000000000000000600052602160045260246000fd5b600860009054906101000a900460ff166002811115610eae577f4e487b7100000000000000000000000000000000000000000000000000000000600052602160045260246000fd5b14610eee576040517f08c379a0000000000000000000000000000000000000000000000000000000008152600401610ee59061148b565b60405180910390fd5b80600660003373ffffffffffffffffffffffffffffffffffffffff1673ffffffffffffffffffffffffffffffffffffffff168152602001908152602001600020541015610f70576040517f08c379a0000000000000000000000000000000000000000000000000000000008152600401610f679061150b565b60405180910390fd5b600081600254610f8091906115d6565b905080471015610fc5576040517f08c379a0000000000000000000000000000000000000000000000000000000008152600401610fbc906114eb565b60405180910390fd5b3373ffffffffffffffffffffffffffffffffffffffff166108fc829081150290604051600060405180830381858888f1935050505015801561100b573d6000803e3d6000fd5b5081600660003373ffffffffffffffffffffffffffffffffffffffff1673ffffffffffffffffffffffffffffffffffffffff168152602001908152602001600020600082825461105b9190611630565b925050819055505050565b600033905090565b60008135905061107d816117ea565b92915050565b60008135905061109281611801565b92915050565b6000602082840312156110aa57600080fd5b60006110b88482850161106e565b91505092915050565b6000602082840312156110d357600080fd5b60006110e184828501611083565b91505092915050565b6110f381611664565b82525050565b611102816116b3565b82525050565b600061111560178361156f565b91507f546865206c6f7474657279206973206e6f74206f70656e0000000000000000006000830152602082019050919050565b600061115560268361156f565b91507f4f776e61626c653a206e6577206f776e657220697320746865207a65726f206160008301527f64647265737300000000000000000000000000000000000000000000000000006020830152604082019050919050565b60006111bb60208361156f565b91507f4174206c65617374206f6e6520706c61796572206973206e65636573736172796000830152602082019050919050565b60006111fb60228361156f565b91507f546865206c6f7474657279206f70656e20706572696f642077617320636c6f7360008301527f65640000000000000000000000000000000000000000000000000000000000006020830152604082019050919050565b600061126160208361156f565b91507f4f776e61626c653a2063616c6c6572206973206e6f7420746865206f776e65726000830152602082019050919050565b60006112a160238361156f565b91507f416d6f756e742073656e7420697320646966666572656e74207468616e20707260008301527f69636500000000000000000000000000000000000000000000000000000000006020830152604082019050919050565b6000611307601f8361156f565b91507f4e6f7420656e6f756768206d6f6e657920696e207468652062616c616e6365006000830152602082019050919050565b6000611347601e8361156f565b91507f596f7520646f206e6f74206861766520656e6f756768207469636b65747300006000830152602082019050919050565b611383816116a9565b82525050565b61139a611395826116a9565b61170e565b82525050565b60006113ac8285611389565b6020820191506113bc8284611389565b6020820191508190509392505050565b60006020820190506113e160008301846110ea565b92915050565b60006040820190506113fc60008301856110ea565b611409602083018461137a565b9392505050565b600060208201905061142560008301846110f9565b92915050565b6000602082019050818103600083015261144481611108565b9050919050565b6000602082019050818103600083015261146481611148565b9050919050565b60006020820190508181036000830152611484816111ae565b9050919050565b600060208201905081810360008301526114a4816111ee565b9050919050565b600060208201905081810360008301526114c481611254565b9050919050565b600060208201905081810360008301526114e481611294565b9050919050565b60006020820190508181036000830152611504816112fa565b9050919050565b600060208201905081810360008301526115248161133a565b9050919050565b6000602082019050611540600083018461137a565b92915050565b600060408201905061155b600083018561137a565b611568602083018461137a565b9392505050565b600082825260208201905092915050565b600061158b826116a9565b9150611596836116a9565b9250827fffffffffffffffffffffffffffffffffffffffffffffffffffffffffffffffff038211156115cb576115ca611749565b5b828201905092915050565b60006115e1826116a9565b91506115ec836116a9565b9250817fffffffffffffffffffffffffffffffffffffffffffffffffffffffffffffffff048311821515161561162557611624611749565b5b828202905092915050565b600061163b826116a9565b9150611646836116a9565b92508282101561165957611658611749565b5b828203905092915050565b600061166f82611689565b9050919050565b6000819050611684826117d6565b919050565b600073ffffffffffffffffffffffffffffffffffffffff82169050919050565b6000819050919050565b60006116be82611676565b9050919050565b60006116d0826116a9565b91507fffffffffffffffffffffffffffffffffffffffffffffffffffffffffffffffff82141561170357611702611749565b5b600182019050919050565b6000819050919050565b6000611723826116a9565b915061172e836116a9565b92508261173e5761173d611778565b5b828206905092915050565b7f4e487b7100000000000000000000000000000000000000000000000000000000600052601160045260246000fd5b7f4e487b7100000000000000000000000000000000000000000000000000000000600052601260045260246000fd5b7f4e487b7100000000000000000000000000000000000000000000000000000000600052602160045260246000fd5b600381106117e7576117e66117a7565b5b50565b6117f381611664565b81146117fe57600080fd5b50565b61180a816116a9565b811461181557600080fd5b5056fea2646970667358221220b8cc61728515f544336929d39aec41a579d8563d94f81bb8c93df1bdaa6ebf9364736f6c63430008000033a26469706673582212201b11ff1e3983c1796a1ba19d95677ad9d97f0cecc37a9640987df0e7a52d177c64736f6c63430008000033",
  "linkReferences": {},
  "deployedLinkReferences": {}
}